{
  "address": "0x5FbDB2315678afecb367f032d93F642f64180aa3",
  "abi": [
    {
      "inputs": [
        {
          "internalType": "bytes",
          "name": "_LSP4MetadataJSONURL",
          "type": "bytes"
        }
      ],
      "stateMutability": "nonpayable",
      "type": "constructor"
    },
    {
      "inputs": [],
      "name": "LSP4TokenNameNotEditable",
      "type": "error"
    },
    {
      "inputs": [],
      "name": "LSP4TokenSymbolNotEditable",
      "type": "error"
    },
    {
      "inputs": [],
      "name": "LSP8CannotSendToAddressZero",
      "type": "error"
    },
    {
      "inputs": [],
      "name": "LSP8CannotUseAddressZeroAsOperator",
      "type": "error"
    },
    {
      "inputs": [],
      "name": "LSP8InvalidTransferBatch",
      "type": "error"
    },
    {
      "inputs": [
        {
          "internalType": "bytes32",
          "name": "tokenId",
          "type": "bytes32"
        }
      ],
      "name": "LSP8NonExistentTokenId",
      "type": "error"
    },
    {
      "inputs": [
        {
          "internalType": "bytes32",
          "name": "tokenId",
          "type": "bytes32"
        },
        {
          "internalType": "address",
          "name": "caller",
          "type": "address"
        }
      ],
      "name": "LSP8NotTokenOperator",
      "type": "error"
    },
    {
      "inputs": [
        {
          "internalType": "address",
          "name": "tokenOwner",
          "type": "address"
        },
        {
          "internalType": "bytes32",
          "name": "tokenId",
          "type": "bytes32"
        },
        {
          "internalType": "address",
          "name": "caller",
          "type": "address"
        }
      ],
      "name": "LSP8NotTokenOwner",
      "type": "error"
    },
    {
      "inputs": [
        {
          "internalType": "address",
          "name": "tokenReceiver",
          "type": "address"
        }
      ],
      "name": "LSP8NotifyTokenReceiverContractMissingLSP1Interface",
      "type": "error"
    },
    {
      "inputs": [
        {
          "internalType": "address",
          "name": "tokenReceiver",
          "type": "address"
        }
      ],
      "name": "LSP8NotifyTokenReceiverIsEOA",
      "type": "error"
    },
    {
      "inputs": [
        {
          "internalType": "bytes32",
          "name": "tokenId",
          "type": "bytes32"
        }
      ],
      "name": "LSP8TokenIdAlreadyMinted",
      "type": "error"
    },
    {
      "anonymous": false,
      "inputs": [
        {
          "indexed": true,
          "internalType": "address",
          "name": "operator",
          "type": "address"
        },
        {
          "indexed": true,
          "internalType": "address",
          "name": "tokenOwner",
          "type": "address"
        },
        {
          "indexed": true,
          "internalType": "bytes32",
          "name": "tokenId",
          "type": "bytes32"
        }
      ],
      "name": "AuthorizedOperator",
      "type": "event"
    },
    {
      "anonymous": false,
      "inputs": [
        {
          "indexed": true,
          "internalType": "bytes32",
          "name": "dataKey",
          "type": "bytes32"
        }
      ],
      "name": "DataChanged",
      "type": "event"
    },
    {
      "anonymous": false,
      "inputs": [
        {
          "indexed": true,
          "internalType": "address",
          "name": "previousOwner",
          "type": "address"
        },
        {
          "indexed": true,
          "internalType": "address",
          "name": "newOwner",
          "type": "address"
        }
      ],
      "name": "OwnershipTransferred",
      "type": "event"
    },
    {
      "anonymous": false,
      "inputs": [
        {
          "indexed": true,
          "internalType": "address",
          "name": "operator",
          "type": "address"
        },
        {
          "indexed": true,
          "internalType": "address",
          "name": "tokenOwner",
          "type": "address"
        },
        {
          "indexed": true,
          "internalType": "bytes32",
          "name": "tokenId",
          "type": "bytes32"
        }
      ],
      "name": "RevokedOperator",
      "type": "event"
    },
    {
      "anonymous": false,
      "inputs": [
        {
          "indexed": false,
          "internalType": "address",
          "name": "operator",
          "type": "address"
        },
        {
          "indexed": true,
          "internalType": "address",
          "name": "from",
          "type": "address"
        },
        {
          "indexed": true,
          "internalType": "address",
          "name": "to",
          "type": "address"
        },
        {
          "indexed": true,
          "internalType": "bytes32",
          "name": "tokenId",
          "type": "bytes32"
        },
        {
          "indexed": false,
          "internalType": "bool",
          "name": "force",
          "type": "bool"
        },
        {
          "indexed": false,
          "internalType": "bytes",
          "name": "data",
          "type": "bytes"
        }
      ],
      "name": "Transfer",
      "type": "event"
    },
    {
      "anonymous": false,
      "inputs": [
        {
          "indexed": true,
          "internalType": "enum SocialNetworkPostType",
          "name": "postType",
          "type": "uint8"
        },
        {
          "indexed": true,
          "internalType": "address",
          "name": "user",
          "type": "address"
        },
        {
          "indexed": true,
          "internalType": "address",
          "name": "targetPost",
          "type": "address"
        },
        {
          "indexed": false,
          "internalType": "address",
          "name": "newPost",
          "type": "address"
        },
        {
          "indexed": false,
          "internalType": "uint256",
          "name": "timestamp",
          "type": "uint256"
        }
      ],
      "name": "UserCreatedPost",
      "type": "event"
    },
    {
      "anonymous": false,
      "inputs": [
        {
          "indexed": true,
          "internalType": "address",
          "name": "user",
          "type": "address"
        },
        {
          "indexed": true,
          "internalType": "address",
          "name": "targetPost",
          "type": "address"
        },
        {
          "indexed": false,
          "internalType": "uint256",
          "name": "timestamp",
          "type": "uint256"
        }
      ],
      "name": "UserLikedPost",
      "type": "event"
    },
    {
      "anonymous": false,
      "inputs": [
        {
          "indexed": true,
          "internalType": "address",
          "name": "user",
          "type": "address"
        },
        {
          "indexed": true,
          "internalType": "address",
          "name": "socialProfileData",
          "type": "address"
        },
        {
          "indexed": true,
          "internalType": "uint256",
          "name": "userNumber",
          "type": "uint256"
        },
        {
          "indexed": false,
          "internalType": "uint256",
          "name": "timestamp",
          "type": "uint256"
        }
      ],
      "name": "UserRegistered",
      "type": "event"
    },
    {
      "anonymous": false,
      "inputs": [
        {
          "indexed": true,
          "internalType": "address",
          "name": "user",
          "type": "address"
        },
        {
          "indexed": true,
          "internalType": "address",
          "name": "targetUser",
          "type": "address"
        },
        {
          "indexed": false,
          "internalType": "uint256",
          "name": "timestamp",
          "type": "uint256"
        }
      ],
      "name": "UserSubscribedUser",
      "type": "event"
    },
    {
      "anonymous": false,
      "inputs": [
        {
          "indexed": true,
          "internalType": "address",
          "name": "user",
          "type": "address"
        },
        {
          "indexed": true,
          "internalType": "address",
          "name": "newPost",
          "type": "address"
        },
        {
          "indexed": true,
          "internalType": "address",
          "name": "targetUser",
          "type": "address"
        },
        {
          "indexed": false,
          "internalType": "uint256",
          "name": "timestamp",
          "type": "uint256"
        }
      ],
      "name": "UserTaggedUserInPost",
      "type": "event"
    },
    {
      "anonymous": false,
      "inputs": [
        {
          "indexed": true,
          "internalType": "address",
          "name": "user",
          "type": "address"
        },
        {
          "indexed": true,
          "internalType": "address",
          "name": "targetPost",
          "type": "address"
        },
        {
          "indexed": false,
          "internalType": "uint256",
          "name": "timestamp",
          "type": "uint256"
        }
      ],
      "name": "UserUnlikedPost",
      "type": "event"
    },
    {
      "anonymous": false,
      "inputs": [
        {
          "indexed": true,
          "internalType": "address",
          "name": "user",
          "type": "address"
        },
        {
          "indexed": true,
          "internalType": "address",
          "name": "targetUser",
          "type": "address"
        },
        {
          "indexed": false,
          "internalType": "uint256",
          "name": "timestamp",
          "type": "uint256"
        }
      ],
      "name": "UserUnsubscribedUser",
      "type": "event"
    },
    {
      "inputs": [
        {
          "internalType": "address",
          "name": "operator",
          "type": "address"
        },
        {
          "internalType": "bytes32",
          "name": "tokenId",
          "type": "bytes32"
        }
      ],
      "name": "authorizeOperator",
      "outputs": [],
      "stateMutability": "nonpayable",
      "type": "function"
    },
    {
      "inputs": [
        {
          "internalType": "address",
          "name": "tokenOwner",
          "type": "address"
        }
      ],
      "name": "balanceOf",
      "outputs": [
        {
          "internalType": "uint256",
          "name": "",
          "type": "uint256"
        }
      ],
      "stateMutability": "view",
      "type": "function"
    },
    {
      "inputs": [
        {
          "internalType": "bytes",
          "name": "_data",
          "type": "bytes"
        },
        {
          "internalType": "address[]",
          "name": "_taggedUsers",
          "type": "address[]"
        },
        {
          "internalType": "address",
          "name": "_targetPost",
          "type": "address"
        }
      ],
      "name": "commentPost",
      "outputs": [
        {
          "internalType": "address",
          "name": "",
          "type": "address"
        }
      ],
      "stateMutability": "nonpayable",
      "type": "function"
    },
    {
      "inputs": [
        {
          "internalType": "bytes",
          "name": "_data",
          "type": "bytes"
        },
        {
          "internalType": "address[]",
          "name": "_taggedUsers",
          "type": "address[]"
        }
      ],
      "name": "createPost",
      "outputs": [
        {
          "internalType": "address",
          "name": "",
          "type": "address"
        }
      ],
      "stateMutability": "nonpayable",
      "type": "function"
    },
    {
      "inputs": [
        {
          "internalType": "bytes32[]",
          "name": "dataKeys",
          "type": "bytes32[]"
        }
      ],
      "name": "getData",
      "outputs": [
        {
          "internalType": "bytes[]",
          "name": "dataValues",
          "type": "bytes[]"
        }
      ],
      "stateMutability": "view",
      "type": "function"
    },
    {
      "inputs": [
        {
          "internalType": "bytes32",
          "name": "dataKey",
          "type": "bytes32"
        }
      ],
      "name": "getData",
      "outputs": [
        {
          "internalType": "bytes",
          "name": "dataValue",
          "type": "bytes"
        }
      ],
      "stateMutability": "view",
      "type": "function"
    },
    {
      "inputs": [
        {
          "internalType": "bytes32",
          "name": "tokenId",
          "type": "bytes32"
        }
      ],
      "name": "getOperatorsOf",
      "outputs": [
        {
          "internalType": "address[]",
          "name": "",
          "type": "address[]"
        }
      ],
      "stateMutability": "view",
      "type": "function"
    },
    {
      "inputs": [
        {
          "internalType": "address",
          "name": "operator",
          "type": "address"
        },
        {
          "internalType": "bytes32",
          "name": "tokenId",
          "type": "bytes32"
        }
      ],
      "name": "isOperatorFor",
      "outputs": [
        {
          "internalType": "bool",
          "name": "",
          "type": "bool"
        }
      ],
      "stateMutability": "view",
      "type": "function"
    },
    {
      "inputs": [
        {
          "internalType": "address",
          "name": "_post",
          "type": "address"
        }
      ],
      "name": "likePost",
      "outputs": [],
      "stateMutability": "nonpayable",
      "type": "function"
    },
    {
      "inputs": [],
      "name": "owner",
      "outputs": [
        {
          "internalType": "address",
          "name": "",
          "type": "address"
        }
      ],
      "stateMutability": "view",
      "type": "function"
    },
    {
      "inputs": [],
      "name": "register",
      "outputs": [
        {
          "internalType": "address",
          "name": "",
          "type": "address"
        }
      ],
      "stateMutability": "nonpayable",
      "type": "function"
    },
    {
      "inputs": [],
      "name": "registeredUserCount",
      "outputs": [
        {
          "internalType": "uint256",
          "name": "",
          "type": "uint256"
        }
      ],
      "stateMutability": "view",
      "type": "function"
    },
    {
      "inputs": [
        {
          "internalType": "address",
          "name": "",
          "type": "address"
        }
      ],
      "name": "registeredUsers",
      "outputs": [
        {
          "internalType": "address",
          "name": "",
          "type": "address"
        }
      ],
      "stateMutability": "view",
      "type": "function"
    },
    {
      "inputs": [],
      "name": "renounceOwnership",
      "outputs": [],
      "stateMutability": "nonpayable",
      "type": "function"
    },
    {
      "inputs": [
        {
          "internalType": "address",
          "name": "operator",
          "type": "address"
        },
        {
          "internalType": "bytes32",
          "name": "tokenId",
          "type": "bytes32"
        }
      ],
      "name": "revokeOperator",
      "outputs": [],
      "stateMutability": "nonpayable",
      "type": "function"
    },
    {
      "inputs": [
        {
          "internalType": "bytes32[]",
          "name": "dataKeys",
          "type": "bytes32[]"
        },
        {
          "internalType": "bytes[]",
          "name": "dataValues",
          "type": "bytes[]"
        }
      ],
      "name": "setData",
      "outputs": [],
      "stateMutability": "nonpayable",
      "type": "function"
    },
    {
      "inputs": [
        {
          "internalType": "bytes32",
          "name": "dataKey",
          "type": "bytes32"
        },
        {
          "internalType": "bytes",
          "name": "dataValue",
          "type": "bytes"
        }
      ],
      "name": "setData",
      "outputs": [],
      "stateMutability": "nonpayable",
      "type": "function"
    },
    {
      "inputs": [
        {
          "internalType": "bytes",
          "name": "_data",
          "type": "bytes"
        },
        {
          "internalType": "address[]",
          "name": "_taggedUsers",
          "type": "address[]"
        },
        {
          "internalType": "address",
          "name": "_targetPost",
          "type": "address"
        }
      ],
      "name": "sharePost",
      "outputs": [
        {
          "internalType": "address",
          "name": "",
          "type": "address"
        }
      ],
      "stateMutability": "nonpayable",
      "type": "function"
    },
    {
      "inputs": [
        {
          "internalType": "address",
          "name": "_user",
          "type": "address"
        }
      ],
      "name": "subscribeUser",
      "outputs": [],
      "stateMutability": "nonpayable",
      "type": "function"
    },
    {
      "inputs": [
        {
          "internalType": "bytes4",
          "name": "interfaceId",
          "type": "bytes4"
        }
      ],
      "name": "supportsInterface",
      "outputs": [
        {
          "internalType": "bool",
          "name": "",
          "type": "bool"
        }
      ],
      "stateMutability": "view",
      "type": "function"
    },
    {
      "inputs": [
        {
          "internalType": "address",
          "name": "tokenOwner",
          "type": "address"
        }
      ],
      "name": "tokenIdsOf",
      "outputs": [
        {
          "internalType": "bytes32[]",
          "name": "",
          "type": "bytes32[]"
        }
      ],
      "stateMutability": "view",
      "type": "function"
    },
    {
      "inputs": [
        {
          "internalType": "bytes32",
          "name": "tokenId",
          "type": "bytes32"
        }
      ],
      "name": "tokenOwnerOf",
      "outputs": [
        {
          "internalType": "address",
          "name": "",
          "type": "address"
        }
      ],
      "stateMutability": "view",
      "type": "function"
    },
    {
      "inputs": [],
      "name": "totalSupply",
      "outputs": [
        {
          "internalType": "uint256",
          "name": "",
          "type": "uint256"
        }
      ],
      "stateMutability": "view",
      "type": "function"
    },
    {
      "inputs": [
        {
          "internalType": "address",
          "name": "from",
          "type": "address"
        },
        {
          "internalType": "address",
          "name": "to",
          "type": "address"
        },
        {
          "internalType": "bytes32",
          "name": "tokenId",
          "type": "bytes32"
        },
        {
          "internalType": "bool",
          "name": "force",
          "type": "bool"
        },
        {
          "internalType": "bytes",
          "name": "data",
          "type": "bytes"
        }
      ],
      "name": "transfer",
      "outputs": [],
      "stateMutability": "nonpayable",
      "type": "function"
    },
    {
      "inputs": [
        {
          "internalType": "address[]",
          "name": "from",
          "type": "address[]"
        },
        {
          "internalType": "address[]",
          "name": "to",
          "type": "address[]"
        },
        {
          "internalType": "bytes32[]",
          "name": "tokenId",
          "type": "bytes32[]"
        },
        {
          "internalType": "bool",
          "name": "force",
          "type": "bool"
        },
        {
          "internalType": "bytes[]",
          "name": "data",
          "type": "bytes[]"
        }
      ],
      "name": "transferBatch",
      "outputs": [],
      "stateMutability": "nonpayable",
      "type": "function"
    },
    {
      "inputs": [
        {
          "internalType": "address",
          "name": "newOwner",
          "type": "address"
        }
      ],
      "name": "transferOwnership",
      "outputs": [],
      "stateMutability": "nonpayable",
      "type": "function"
    },
    {
      "inputs": [
        {
          "internalType": "address",
          "name": "_post",
          "type": "address"
        }
      ],
      "name": "unlikePost",
      "outputs": [],
      "stateMutability": "nonpayable",
      "type": "function"
    },
    {
      "inputs": [
        {
          "internalType": "address",
          "name": "_user",
          "type": "address"
        }
      ],
      "name": "unsubscribeUser",
      "outputs": [],
      "stateMutability": "nonpayable",
      "type": "function"
    }
  ],
  "transactionHash": "0x087d0a25400cfdc3f905f322e22f9e96869d781e4e9a5cfe4df6807e7993c21a",
  "args": [
    "0x6f357c6ad575b7fd3a648e998af8851efb8fc396805b73a3f72016df79dfedce79c76a53697066733a2f2f516d6563726e6645464c4d64573642586a4a65316e76794c6450655033435967516258774e6d593850374c666553"
  ],
  "numDeployments": 1,
  "solcInputHash": "e9dae2c53aec6629d98792afc9e87cf3",
  "bytecode": "0x608060405260006007553480156200001657600080fd5b5060405162004ed138038062004ed1833981016040819052620000399162000453565b6040518060400160405280601381526020017f536f6369616c204e6574776f726b20506f737400000000000000000000000000815250604051806040016040528060038152602001620534e560ec1b8152503382828280620000a681620001db60201b62002c2c1760201c565b50620000fd7feafec4d89fa9619884b60000a4d96624a38f7ac2d8d9a604ecf07c12c77e480c60001b604051806040016040528060048152602001632936598960e21b8152506200024260201b62002ca91760201c565b6200012660008051602062004e9183398151915260001b846200024260201b62002ca91760201c565b6200014f60008051602062004eb183398151915260001b836200024260201b62002ca91760201c565b505050505050620001a87f715f248956de7ce65e94d9d836bfead479f7e70d69b718d47bfe7b00e05b4fe460001b60016040516020016200019291815260200190565b60408051601f1981840301815291905262000293565b620001d47f9afb95cacc9f95858ec44aa8c3b685511002e30ae54415823f406128b85b238e8262000293565b506200056c565b6000546001600160a01b038281169116146200023f57600080546001600160a01b038381166001600160a01b0319831681178455604051919092169283917f8be0079c531659141344cd1fd0a4f28419497f9722a3daafe3b4186f6b6457e09190a3505b50565b60008281526001602090815260409091208251620002639284019062000397565b5060405182907fcdf4e344c0d23d4cdd0474039d176c55b19d531070dbe17856bfb993a5b5720b90600090a25050565b6200029d620002ad565b620002a982826200031e565b5050565b33620002c16000546001600160a01b031690565b6001600160a01b0316146200031c5760405162461bcd60e51b815260206004820181905260248201527f4f776e61626c653a2063616c6c6572206973206e6f7420746865206f776e6572604482015260640160405180910390fd5b565b60008051602062004e918339815191528214156200034f576040516385c169bd60e01b815260040160405180910390fd5b60008051602062004eb18339815191528214156200038057604051630eceab6760e31b815260040160405180910390fd5b620002a982826200024260201b62002ca91760201c565b828054620003a5906200052f565b90600052602060002090601f016020900481019282620003c9576000855562000414565b82601f10620003e457805160ff191683800117855562000414565b8280016001018555821562000414579182015b8281111562000414578251825591602001919060010190620003f7565b506200042292915062000426565b5090565b5b8082111562000422576000815560010162000427565b634e487b7160e01b600052604160045260246000fd5b600060208083850312156200046757600080fd5b82516001600160401b03808211156200047f57600080fd5b818501915085601f8301126200049457600080fd5b815181811115620004a957620004a96200043d565b604051601f8201601f19908116603f01168101908382118183101715620004d457620004d46200043d565b816040528281528886848701011115620004ed57600080fd5b600093505b82841015620005115784840186015181850187015292850192620004f2565b82841115620005235760008684830101525b98975050505050505050565b600181811c908216806200054457607f821691505b602082108114156200056657634e487b7160e01b600052602260045260246000fd5b50919050565b614915806200057c6000396000f3fe608060405234801561001057600080fd5b50600436106101c45760003560e01c806365c12877116100f9578063b2fd625c11610097578063e7c4ece511610071578063e7c4ece5146103e7578063f0e7a43c146103fa578063f2fde38b1461040d578063fc7200311461042057600080fd5b8063b2fd625c146103b8578063cb3d0564146103cb578063cf5182ba146103d457600080fd5b80637659c8c9116100d35780637659c8c9146103615780637f23690c146103745780638da5cb5b14610387578063a3b261f21461039857600080fd5b806365c128771461033357806370a0823114610346578063715018a61461035957600080fd5b8063217b2270116101665780634e3e6e9c116101405780634e3e6e9c146102cd578063511b6952146102ed57806354f6127f14610300578063559088681461032057600080fd5b8063217b2270146102875780632a3654a41461029a57806349a6078d146102ad57600080fd5b80630e50cee5116101a25780630e50cee51461021957806314a6e2931461025a57806318160ddd1461026d5780631aa3a0081461027f57600080fd5b806301ffc9a7146101c957806302397a82146101f15780630b0c6d8214610206575b600080fd5b6101dc6101d7366004613cc7565b610433565b60405190151581526020015b60405180910390f35b6102046101ff366004613d1e565b61048f565b005b610204610214366004613d3b565b610a59565b610242610227366004613d1e565b6006602052600090815260409020546001600160a01b031681565b6040516001600160a01b0390911681526020016101e8565b610204610268366004613f4f565b610b34565b6002545b6040519081526020016101e8565b610242610c08565b610242610295366004613fb3565b610e7e565b6101dc6102a8366004613d3b565b610ed0565b6102c06102bb366004613fb3565b610eec565b6040516101e89190613fcc565b6102e06102db366004614019565b610f0e565b6040516101e891906140a6565b6102046102fb366004614134565b610fc2565b61031361030e366004613fb3565b61102a565b6040516101e891906141b3565b61020461032e36600461422a565b611035565b61024261034136600461436d565b61111b565b610271610354366004613d1e565b61166c565b61020461168d565b61020461036f366004613d1e565b6116a1565b6102046103823660046143f1565b611a0f565b6000546001600160a01b0316610242565b6103ab6103a6366004613d1e565b611a25565b6040516101e8919061442e565b6102426103c6366004614466565b611a49565b61027160075481565b6102046103e2366004613d3b565b611c87565b6102046103f5366004613d1e565b611db1565b610204610408366004613d1e565b612368565b61020461041b366004613d1e565b6126ca565b61024261042e36600461436d565b61275a565b60007fffffffff0000000000000000000000000000000000000000000000000000000082167f52ae1080000000000000000000000000000000000000000000000000000000001480610489575061048982612cf8565b92915050565b336000818152600660205260409020546001600160a01b03166104f95760405162461bcd60e51b815260206004820152601e60248201527f557365722061646472657373206973206e6f742072656769737465726564000060448201526064015b60405180910390fd5b6040517f01ffc9a70000000000000000000000000000000000000000000000000000000081527f8ef076aa00000000000000000000000000000000000000000000000000000000600482015282906001600160a01b038216906301ffc9a79060240160206040518083038186803b15801561057357600080fd5b505afa158015610587573d6000803e3d6000fd5b505050506040513d601f19601f820116820180604052508101906105ab91906144d2565b6106435760405162461bcd60e51b815260206004820152605860248201527f506f73742061646472657373206973206e6f7420706f696e74696e6720746f2060448201527f612076616c696420706f73742028536f6369616c4e6574776f726b506f73742060648201527f696e74657266616365206e6f7420617661696c61626c65290000000000000000608482015260a4016104f0565b306001600160a01b0316816001600160a01b0316638da5cb5b6040518163ffffffff1660e01b815260040160206040518083038186803b15801561068657600080fd5b505afa15801561069a573d6000803e3d6000fd5b505050506040513d601f19601f820116820180604052508101906106be91906144ef565b6001600160a01b0316146107615760405162461bcd60e51b8152602060048201526044602482018190527f506f73742061646472657373206973206e6f74206f776e656420627920637572908201527f72656e7420536f6369616c4e6574776f726b20636f6e747261637420696e737460648201527f616e636500000000000000000000000000000000000000000000000000000000608482015260a4016104f0565b3383806001600160a01b031663a6c3e6b96040518163ffffffff1660e01b815260040160206040518083038186803b15801561079c57600080fd5b505afa1580156107b0573d6000803e3d6000fd5b505050506040513d601f19601f820116820180604052508101906107d491906144ef565b6001600160a01b0316826001600160a01b031614156108355760405162461bcd60e51b815260206004820181905260248201527f55736572206d757374206e6f742062652074686520706f737420617574686f7260448201526064016104f0565b6040517f6038b7f800000000000000000000000000000000000000000000000000000000815233600482018190529086906001600160a01b03821690636038b7f89060240160206040518083038186803b15801561089257600080fd5b505afa1580156108a6573d6000803e3d6000fd5b505050506040513d601f19601f820116820180604052508101906108ca91906144d2565b156109175760405162461bcd60e51b815260206004820152601f60248201527f557365722068617320616c7265616479206c696b65642074686520706f73740060448201526064016104f0565b6040517f888b9afe0000000000000000000000000000000000000000000000000000000081523360048201526001600160a01b0388169063888b9afe90602401600060405180830381600087803b15801561097157600080fd5b505af1158015610985573d6000803e3d6000fd5b505033600090815260066020526040908190205490517f888b9afe0000000000000000000000000000000000000000000000000000000081526001600160a01b038b81166004830152909116925063888b9afe9150602401600060405180830381600087803b1580156109f757600080fd5b505af1158015610a0b573d6000803e3d6000fd5b50506040514281526001600160a01b038a1692503391507f876663551057bbf491fadeab49176312ba3c80adb2edaaabbe66a39b8b41e986906020015b60405180910390a350505050505050565b6000610a6482610e7e565b9050336001600160a01b0382168114610ac3576040517f5b271ea20000000000000000000000000000000000000000000000000000000081526001600160a01b03808416600483015260248201859052821660448201526064016104f0565b6001600160a01b038416610b03576040517f9577b8b300000000000000000000000000000000000000000000000000000000815260040160405180910390fd5b836001600160a01b0316826001600160a01b03161415610b235750505050565b610b2e848385612d4e565b50505050565b610b3c612dad565b8051825114610bb35760405162461bcd60e51b815260206004820152602660248201527f4b657973206c656e677468206e6f7420657175616c20746f2076616c7565732060448201527f6c656e677468000000000000000000000000000000000000000000000000000060648201526084016104f0565b60005b8251811015610c0357610bfb838281518110610bd457610bd461450c565b6020026020010151838381518110610bee57610bee61450c565b6020026020010151612e16565b600101610bb6565b505050565b336000908152600660205260408120546001600160a01b031615610c945760405162461bcd60e51b815260206004820152602260248201527f55736572206164647265737320697320616c726561647920726567697374657260448201527f656400000000000000000000000000000000000000000000000000000000000060648201526084016104f0565b333b610d2e5760405162461bcd60e51b815260206004820152604960248201527f55736572206164647265737320697320616e20454f41202d204f6e6c7920736d60448201527f61727420636f6e7472616374206261736564206163636f756e7473206172652060648201527f737570706f727465640000000000000000000000000000000000000000000000608482015260a4016104f0565b600760008154610d3d9061456a565b909155506040517f5be98904000000000000000000000000000000000000000000000000000000008152306004820152336024820152732279B7A0a67DB372996a5FaB50D91eAA73d2eBe690635be989049060440160206040518083038186803b158015610daa57600080fd5b505af4158015610dbe573d6000803e3d6000fd5b505050506040513d601f19601f82011682018060405250810190610de291906144ef565b3360008181526006602090815260409182902080547fffffffffffffffffffffffff0000000000000000000000000000000000000000166001600160a01b039590951694851790556007549151428152919392917fb626e6cc43dfdcd60d2e41d199e03d0c90c4c7bb5c76193c8d6c31b88217f96c910160405180910390a450336000908152600660205260409020546001600160a01b031690565b6000818152600360205260408120546001600160a01b031680610489576040517fae8f9a36000000000000000000000000000000000000000000000000000000008152600481018490526024016104f0565b6000610edb82612ed4565b610ee58383612f25565b9392505050565b6060610ef782612ed4565b600082815260056020526040902061048990612f6e565b6060815167ffffffffffffffff811115610f2a57610f2a613d67565b604051908082528060200260200182016040528015610f5d57816020015b6060815260200190600190039081610f485790505b50905060005b8251811015610fbc57610f8e838281518110610f8157610f8161450c565b6020026020010151612f7b565b828281518110610fa057610fa061450c565b6020026020010181905250610fb58160010190565b9050610f63565b50919050565b33610fcd8185612f25565b611015576040517f1294d2a9000000000000000000000000000000000000000000000000000000008152600481018590526001600160a01b03821660248201526044016104f0565b611022868686868661301d565b505050505050565b606061048982612f7b565b8351855114158061104857508251855114155b8061105557508051855114155b1561108c576040517f93a8311900000000000000000000000000000000000000000000000000000000815260040160405180910390fd5b60005b8551811015611022576111098682815181106110ad576110ad61450c565b60200260200101518683815181106110c7576110c761450c565b60200260200101518684815181106110e1576110e161450c565b6020026020010151868686815181106110fc576110fc61450c565b6020026020010151610fc2565b806111138161456a565b91505061108f565b336000818152600660205260408120549091906001600160a01b03166111835760405162461bcd60e51b815260206004820152601e60248201527f557365722061646472657373206973206e6f742072656769737465726564000060448201526064016104f0565b6040517f01ffc9a70000000000000000000000000000000000000000000000000000000081527f8ef076aa00000000000000000000000000000000000000000000000000000000600482015283906001600160a01b038216906301ffc9a79060240160206040518083038186803b1580156111fd57600080fd5b505afa158015611211573d6000803e3d6000fd5b505050506040513d601f19601f8201168201806040525081019061123591906144d2565b6112cd5760405162461bcd60e51b815260206004820152605860248201527f506f73742061646472657373206973206e6f7420706f696e74696e6720746f2060448201527f612076616c696420706f73742028536f6369616c4e6574776f726b506f73742060648201527f696e74657266616365206e6f7420617661696c61626c65290000000000000000608482015260a4016104f0565b306001600160a01b0316816001600160a01b0316638da5cb5b6040518163ffffffff1660e01b815260040160206040518083038186803b15801561131057600080fd5b505afa158015611324573d6000803e3d6000fd5b505050506040513d601f19601f8201168201806040525081019061134891906144ef565b6001600160a01b0316146113eb5760405162461bcd60e51b8152602060048201526044602482018190527f506f73742061646472657373206973206e6f74206f776e656420627920637572908201527f72656e7420536f6369616c4e6574776f726b20636f6e747261637420696e737460648201527f616e636500000000000000000000000000000000000000000000000000000000608482015260a4016104f0565b6040517fdc2dde3d00000000000000000000000000000000000000000000000000000000815260009073a513E6E4b8f2a923D98304ec87F64353C4D5C8539063dc2dde3d9061144a90309033908e908e908e908e908e90600401614617565b60206040518083038186803b15801561146257600080fd5b505af4158015611476573d6000803e3d6000fd5b505050506040513d601f19601f8201168201806040525081019061149a91906144ef565b60408051600060208201527fffffffffffffffffffffffffffffffffffffffff000000000000000000000000606084901b16602c82015291925061150b913391015b6040516020818303038152906040526114f49061466e565b6000604051806020016040528060008152506131d3565b6040517fdb58ebdb0000000000000000000000000000000000000000000000000000000081526001600160a01b03828116600483015286169063db58ebdb90602401600060405180830381600087803b15801561156757600080fd5b505af115801561157b573d6000803e3d6000fd5b505033600090815260066020526040908190205490517f3ff754420000000000000000000000000000000000000000000000000000000081526001600160a01b0385811660048301529091169250633ff754429150602401600060405180830381600087803b1580156115ed57600080fd5b505af1158015611601573d6000803e3d6000fd5b5050506001600160a01b03861690503360015b604080516001600160a01b03861681524260208201527f06f095ada26821e903889ee7afb234766ef8aa5eeac88a0a139f40fbdbfe4833910160405180910390a461166081888861332b565b98975050505050505050565b6001600160a01b038116600090815260046020526040812061048990613377565b611695612dad565b61169f6000612c2c565b565b336000818152600660205260409020546001600160a01b03166117065760405162461bcd60e51b815260206004820152601e60248201527f557365722061646472657373206973206e6f742072656769737465726564000060448201526064016104f0565b6001600160a01b0380831660009081526006602052604090205483911661176f5760405162461bcd60e51b815260206004820152601e60248201527f557365722061646472657373206973206e6f742072656769737465726564000060448201526064016104f0565b33836001600160a01b0381168214156117ca5760405162461bcd60e51b815260206004820152601760248201527f5573657273206d75737420626520646966666572656e7400000000000000000060448201526064016104f0565b6001600160a01b03828116600090815260066020526040908190205490517f1042c45b0000000000000000000000000000000000000000000000000000000081528383166004820152911690631042c45b9060240160206040518083038186803b15801561183757600080fd5b505afa15801561184b573d6000803e3d6000fd5b505050506040513d601f19601f8201168201806040525081019061186f91906144d2565b156118bc5760405162461bcd60e51b815260206004820152601c60248201527f5573657220697320616c7265616479206120737562736372696265720000000060448201526064016104f0565b33600090815260066020526040908190205490517ff29362510000000000000000000000000000000000000000000000000000000081526001600160a01b0387811660048301529091169063f293625190602401600060405180830381600087803b15801561192a57600080fd5b505af115801561193e573d6000803e3d6000fd5b505050506001600160a01b03858116600090815260066020526040908190205490517f94555d1a0000000000000000000000000000000000000000000000000000000081523360048201529116906394555d1a90602401600060405180830381600087803b1580156119af57600080fd5b505af11580156119c3573d6000803e3d6000fd5b50506040514281526001600160a01b03881692503391507fb28fc0c0eb588dadcdf724fc3ef93e40bdc619874a448e441da14d52c3c3073f906020015b60405180910390a35050505050565b611a17612dad565b611a218282612e16565b5050565b6001600160a01b038116600090815260046020526040902060609061048990613381565b336000818152600660205260408120549091906001600160a01b0316611ab15760405162461bcd60e51b815260206004820152601e60248201527f557365722061646472657373206973206e6f742072656769737465726564000060448201526064016104f0565b6040517f49434d5e00000000000000000000000000000000000000000000000000000000815260009073a513E6E4b8f2a923D98304ec87F64353C4D5C853906349434d5e90611b0e90309033908c908c908c908c906004016146b0565b60206040518083038186803b158015611b2657600080fd5b505af4158015611b3a573d6000803e3d6000fd5b505050506040513d601f19601f82011682018060405250810190611b5e91906144ef565b60408051600060208201527fffffffffffffffffffffffffffffffffffffffff000000000000000000000000606084901b16602c820152919250611ba4913391016114dc565b33600090815260066020526040908190205490517f3ff754420000000000000000000000000000000000000000000000000000000081526001600160a01b03838116600483015290911690633ff7544290602401600060405180830381600087803b158015611c1257600080fd5b505af1158015611c26573d6000803e3d6000fd5b5060009250339150829050604080516001600160a01b03861681524260208201527f06f095ada26821e903889ee7afb234766ef8aa5eeac88a0a139f40fbdbfe4833910160405180910390a4611c7d81868661332b565b9695505050505050565b6000611c9282610e7e565b9050336001600160a01b0382168114611cf1576040517f5b271ea20000000000000000000000000000000000000000000000000000000081526001600160a01b03808416600483015260248201859052821660448201526064016104f0565b6001600160a01b038416611d31576040517f9577b8b300000000000000000000000000000000000000000000000000000000815260040160405180910390fd5b836001600160a01b0316826001600160a01b03161415611d515750505050565b6000838152600560205260409020611d69908561338c565b5082826001600160a01b0316856001600160a01b03167f34b797fc5a526f7bf1d2b5de25f6564fd85ae364e3ee939aee7c1ac27871a98860405160405180910390a450505050565b336000818152600660205260409020546001600160a01b0316611e165760405162461bcd60e51b815260206004820152601e60248201527f557365722061646472657373206973206e6f742072656769737465726564000060448201526064016104f0565b6040517f01ffc9a70000000000000000000000000000000000000000000000000000000081527f8ef076aa00000000000000000000000000000000000000000000000000000000600482015282906001600160a01b038216906301ffc9a79060240160206040518083038186803b158015611e9057600080fd5b505afa158015611ea4573d6000803e3d6000fd5b505050506040513d601f19601f82011682018060405250810190611ec891906144d2565b611f605760405162461bcd60e51b815260206004820152605860248201527f506f73742061646472657373206973206e6f7420706f696e74696e6720746f2060448201527f612076616c696420706f73742028536f6369616c4e6574776f726b506f73742060648201527f696e74657266616365206e6f7420617661696c61626c65290000000000000000608482015260a4016104f0565b306001600160a01b0316816001600160a01b0316638da5cb5b6040518163ffffffff1660e01b815260040160206040518083038186803b158015611fa357600080fd5b505afa158015611fb7573d6000803e3d6000fd5b505050506040513d601f19601f82011682018060405250810190611fdb91906144ef565b6001600160a01b03161461207e5760405162461bcd60e51b8152602060048201526044602482018190527f506f73742061646472657373206973206e6f74206f776e656420627920637572908201527f72656e7420536f6369616c4e6574776f726b20636f6e747261637420696e737460648201527f616e636500000000000000000000000000000000000000000000000000000000608482015260a4016104f0565b3383806001600160a01b031663a6c3e6b96040518163ffffffff1660e01b815260040160206040518083038186803b1580156120b957600080fd5b505afa1580156120cd573d6000803e3d6000fd5b505050506040513d601f19601f820116820180604052508101906120f191906144ef565b6001600160a01b0316826001600160a01b031614156121525760405162461bcd60e51b815260206004820181905260248201527f55736572206d757374206e6f742062652074686520706f737420617574686f7260448201526064016104f0565b6040517f6038b7f800000000000000000000000000000000000000000000000000000000815233600482018190529086906001600160a01b03821690636038b7f89060240160206040518083038186803b1580156121af57600080fd5b505afa1580156121c3573d6000803e3d6000fd5b505050506040513d601f19601f820116820180604052508101906121e791906144d2565b6122335760405162461bcd60e51b815260206004820152601e60248201527f5573657220646964206e6f74206c696b652074686520706f737420796574000060448201526064016104f0565b6040517fd1d05dae0000000000000000000000000000000000000000000000000000000081523360048201526001600160a01b0388169063d1d05dae90602401600060405180830381600087803b15801561228d57600080fd5b505af11580156122a1573d6000803e3d6000fd5b505033600090815260066020526040908190205490517fd1d05dae0000000000000000000000000000000000000000000000000000000081526001600160a01b038b81166004830152909116925063d1d05dae9150602401600060405180830381600087803b15801561231357600080fd5b505af1158015612327573d6000803e3d6000fd5b50506040514281526001600160a01b038a1692503391507fcfe29e184ff93a5d905406b88c3ece544de591d1065ff4f7ee19d8ba7e0c863a90602001610a48565b336000818152600660205260409020546001600160a01b03166123cd5760405162461bcd60e51b815260206004820152601e60248201527f557365722061646472657373206973206e6f742072656769737465726564000060448201526064016104f0565b6001600160a01b038083166000908152600660205260409020548391166124365760405162461bcd60e51b815260206004820152601e60248201527f557365722061646472657373206973206e6f742072656769737465726564000060448201526064016104f0565b33836001600160a01b0381168214156124915760405162461bcd60e51b815260206004820152601760248201527f5573657273206d75737420626520646966666572656e7400000000000000000060448201526064016104f0565b6001600160a01b03828116600090815260066020526040908190205490517f1042c45b0000000000000000000000000000000000000000000000000000000081528383166004820152911690631042c45b9060240160206040518083038186803b1580156124fe57600080fd5b505afa158015612512573d6000803e3d6000fd5b505050506040513d601f19601f8201168201806040525081019061253691906144d2565b6125825760405162461bcd60e51b815260206004820152601c60248201527f55736572206973206e6f7420612073756273637269626572207965740000000060448201526064016104f0565b33600090815260066020526040908190205490517f5d2052a80000000000000000000000000000000000000000000000000000000081526001600160a01b03878116600483015290911690635d2052a890602401600060405180830381600087803b1580156125f057600080fd5b505af1158015612604573d6000803e3d6000fd5b505050506001600160a01b03858116600090815260066020526040908190205490517f627c34ad00000000000000000000000000000000000000000000000000000000815233600482015291169063627c34ad90602401600060405180830381600087803b15801561267557600080fd5b505af1158015612689573d6000803e3d6000fd5b50506040514281526001600160a01b03881692503391507fc454fd8716f3d1a00fe1ccf95999df07044e76f6424799d86bf0b55c6331de8490602001611a00565b6126d2612dad565b6001600160a01b03811661274e5760405162461bcd60e51b815260206004820152602660248201527f4f776e61626c653a206e6577206f776e657220697320746865207a65726f206160448201527f646472657373000000000000000000000000000000000000000000000000000060648201526084016104f0565b61275781612c2c565b50565b336000818152600660205260408120549091906001600160a01b03166127c25760405162461bcd60e51b815260206004820152601e60248201527f557365722061646472657373206973206e6f742072656769737465726564000060448201526064016104f0565b6040517f01ffc9a70000000000000000000000000000000000000000000000000000000081527f8ef076aa00000000000000000000000000000000000000000000000000000000600482015283906001600160a01b038216906301ffc9a79060240160206040518083038186803b15801561283c57600080fd5b505afa158015612850573d6000803e3d6000fd5b505050506040513d601f19601f8201168201806040525081019061287491906144d2565b61290c5760405162461bcd60e51b815260206004820152605860248201527f506f73742061646472657373206973206e6f7420706f696e74696e6720746f2060448201527f612076616c696420706f73742028536f6369616c4e6574776f726b506f73742060648201527f696e74657266616365206e6f7420617661696c61626c65290000000000000000608482015260a4016104f0565b306001600160a01b0316816001600160a01b0316638da5cb5b6040518163ffffffff1660e01b815260040160206040518083038186803b15801561294f57600080fd5b505afa158015612963573d6000803e3d6000fd5b505050506040513d601f19601f8201168201806040525081019061298791906144ef565b6001600160a01b031614612a2a5760405162461bcd60e51b8152602060048201526044602482018190527f506f73742061646472657373206973206e6f74206f776e656420627920637572908201527f72656e7420536f6369616c4e6574776f726b20636f6e747261637420696e737460648201527f616e636500000000000000000000000000000000000000000000000000000000608482015260a4016104f0565b6040517fc81bfe0e00000000000000000000000000000000000000000000000000000000815260009073a513E6E4b8f2a923D98304ec87F64353C4D5C8539063c81bfe0e90612a8990309033908e908e908e908e908e90600401614617565b60206040518083038186803b158015612aa157600080fd5b505af4158015612ab5573d6000803e3d6000fd5b505050506040513d601f19601f82011682018060405250810190612ad991906144ef565b60408051600060208201527fffffffffffffffffffffffffffffffffffffffff000000000000000000000000606084901b16602c820152919250612b1f913391016114dc565b6040517f703eb7240000000000000000000000000000000000000000000000000000000081526001600160a01b03828116600483015286169063703eb72490602401600060405180830381600087803b158015612b7b57600080fd5b505af1158015612b8f573d6000803e3d6000fd5b505033600090815260066020526040908190205490517f3ff754420000000000000000000000000000000000000000000000000000000081526001600160a01b0385811660048301529091169250633ff754429150602401600060405180830381600087803b158015612c0157600080fd5b505af1158015612c15573d6000803e3d6000fd5b5050506001600160a01b0386169050336002611614565b6000546001600160a01b0382811691161461275757600080546001600160a01b038381167fffffffffffffffffffffffff0000000000000000000000000000000000000000831681178455604051919092169283917f8be0079c531659141344cd1fd0a4f28419497f9722a3daafe3b4186f6b6457e09190a35050565b60008281526001602090815260409091208251612cc892840190613c2e565b5060405182907fcdf4e344c0d23d4cdd0474039d176c55b19d531070dbe17856bfb993a5b5720b90600090a25050565b60007fffffffff0000000000000000000000000000000000000000000000000000000082167f493991450000000000000000000000000000000000000000000000000000000014806104895750610489826133a1565b6000818152600560205260409020612d669084613438565b5080826001600160a01b0316846001600160a01b03167f17d5389f6ab6adb2647dfa0aa365c323d37adacc30b33a65310b6158ce1373d560405160405180910390a4505050565b33612dc06000546001600160a01b031690565b6001600160a01b03161461169f5760405162461bcd60e51b815260206004820181905260248201527f4f776e61626c653a2063616c6c6572206973206e6f7420746865206f776e657260448201526064016104f0565b7fdeba1e292f8ba88238e10ab3c7f88bd4be4fac56cad5194b6ecceaf653468af1821415612e70576040517f85c169bd00000000000000000000000000000000000000000000000000000000815260040160405180910390fd5b7f2f0a68ab07768e01943a599e73362a0e17a63a72e94dd2e384d2c1d4db932756821415612eca576040517f76755b3800000000000000000000000000000000000000000000000000000000815260040160405180910390fd5b611a218282612ca9565b6000818152600360205260409020546001600160a01b0316612757576040517fae8f9a36000000000000000000000000000000000000000000000000000000008152600481018290526024016104f0565b600080612f3183610e7e565b9050806001600160a01b0316846001600160a01b03161480612f6657506000838152600560205260409020612f66908561344d565b949350505050565b60606000610ee58361346f565b6000818152600160205260409020805460609190612f98906146fd565b80601f0160208091040260200160405190810160405280929190818152602001828054612fc4906146fd565b80156130115780601f10612fe657610100808354040283529160200191613011565b820191906000526020600020905b815481529060010190602001808311612ff457829003601f168201915b50505050509050919050565b600061302884610e7e565b9050856001600160a01b0316816001600160a01b03161461308f576040517f5b271ea20000000000000000000000000000000000000000000000000000000081526001600160a01b03808316600483015260248201869052871660448201526064016104f0565b6001600160a01b0385166130cf576040517f24ecef4d00000000000000000000000000000000000000000000000000000000815260040160405180910390fd5b336130db8787876134ca565b6130e5878661351c565b6001600160a01b0387166000908152600460205260409020613107908661356d565b506001600160a01b038616600090815260046020526040902061312a9086613579565b506000858152600360205260409081902080547fffffffffffffffffffffffff0000000000000000000000000000000000000000166001600160a01b0389811691821790925591518792918a16907fb333c813a7426a7a11e2b190cad52c44119421594b47f6f32ace6d8c7207b2bf906131a99086908a908a9061474b565b60405180910390a46131bd87878786613585565b6131ca878787878761369a565b50505050505050565b6001600160a01b038416613213576040517f24ecef4d00000000000000000000000000000000000000000000000000000000815260040160405180910390fd5b6000838152600360205260409020546001600160a01b031615613265576040517f34c7b511000000000000000000000000000000000000000000000000000000008152600481018490526024016104f0565b33613272600086866134ca565b6001600160a01b03851660009081526004602052604090206132949085613579565b5060008481526003602052604080822080547fffffffffffffffffffffffff0000000000000000000000000000000000000000166001600160a01b03891690811790915590518692907fb333c813a7426a7a11e2b190cad52c44119421594b47f6f32ace6d8c7207b2bf9061330e9086908990899061474b565b60405180910390a461332460008686868661369a565b5050505050565b8060005b81811015613324576133678585858481811061334d5761334d61450c565b90506020020160208101906133629190613d1e565b613845565b6133708161456a565b905061332f565b6000610489825490565b60606104898261346f565b6000610ee5836001600160a01b038416613991565b60007fffffffff0000000000000000000000000000000000000000000000000000000082167f714df77c00000000000000000000000000000000000000000000000000000000148061048957507f01ffc9a7000000000000000000000000000000000000000000000000000000007fffffffff00000000000000000000000000000000000000000000000000000000831614610489565b6000610ee5836001600160a01b0384166139e0565b6001600160a01b03811660009081526001830160205260408120541515610ee5565b60608160000180548060200260200160405190810160405280929190818152602001828054801561301157602002820191906000526020600020905b8154815260200190600101908083116134ab5750505050509050919050565b6001600160a01b0383166134f1576001600260008282546134eb919061477e565b90915550505b6001600160a01b038216610c03576001600260008282546135129190614796565b9091555050505050565b60008181526005602052604081209061353482613377565b905060005b8181101561332457600061354d8482613ad3565b905061355a818787612d4e565b50806135658161456a565b915050613539565b6000610ee583836139e0565b6000610ee58383613991565b6135af847f6bb56a1400000000000000000000000000000000000000000000000000000000613adf565b15610b2e576000848484846040516020016135cd94939291906147ad565b60408051601f19818403018152908290527f6bb56a1400000000000000000000000000000000000000000000000000000000825291506001600160a01b03861690636bb56a1490613644907f3724c94f0815e936299cca424da4140752198e0beb7931a6e0925d11bc97544c90859060040161480d565b600060405180830381600087803b15801561365e57600080fd5b505af1158015613672573d6000803e3d6000fd5b505050506040513d6000823e601f3d908101601f191682016040526110229190810190614826565b6136c4847f6bb56a1400000000000000000000000000000000000000000000000000000000613adf565b156137b6576000858585846040516020016136e294939291906147ad565b60408051601f19818403018152908290527f6bb56a1400000000000000000000000000000000000000000000000000000000825291506001600160a01b03861690636bb56a1490613759907fc7a120a42b6057a0cbed111fbbfbd52fcd96748c04394f77fc2c3adbe0391e0190859060040161480d565b600060405180830381600087803b15801561377357600080fd5b505af1158015613787573d6000803e3d6000fd5b505050506040513d6000823e601f3d908101601f191682016040526137af9190810190614826565b5050613324565b81613324576001600160a01b0384163b15613808576040517f4349776d0000000000000000000000000000000000000000000000000000000081526001600160a01b03851660048201526024016104f0565b6040517f031731370000000000000000000000000000000000000000000000000000000081526001600160a01b03851660048201526024016104f0565b6001600160a01b038082166000908152600660205260409020548291166138ae5760405162461bcd60e51b815260206004820152601e60248201527f557365722061646472657373206973206e6f742072656769737465726564000060448201526064016104f0565b6001600160a01b03828116600090815260066020526040908190205490517fcacbcb70000000000000000000000000000000000000000000000000000000008152858316600482015291169063cacbcb7090602401600060405180830381600087803b15801561391d57600080fd5b505af1158015613931573d6000803e3d6000fd5b50505050816001600160a01b0316836001600160a01b0316336001600160a01b03167fd120eb66fc1d1f51883f85ad2776ef64e71c8fc34bb794678ff88c497d00c6eb4260405161398491815260200190565b60405180910390a4505050565b60008181526001830160205260408120546139d857508154600181810184556000848152602080822090930184905584548482528286019093526040902091909155610489565b506000610489565b60008181526001830160205260408120548015613ac9576000613a04600183614796565b8554909150600090613a1890600190614796565b9050818114613a7d576000866000018281548110613a3857613a3861450c565b9060005260206000200154905080876000018481548110613a5b57613a5b61450c565b6000918252602080832090910192909255918252600188019052604090208390555b8554869080613a8e57613a8e614894565b600190038181906000526020600020016000905590558560010160008681526020019081526020016000206000905560019350505050610489565b6000915050610489565b6000610ee58383613c04565b604080517fffffffff00000000000000000000000000000000000000000000000000000000831660248083019190915282518083039091018152604490910182526020810180517bffffffffffffffffffffffffffffffffffffffffffffffffffffffff167f01ffc9a700000000000000000000000000000000000000000000000000000000179052905160009190829081906001600160a01b0387169061753090613b8c9086906148c3565b6000604051808303818686fa925050503d8060008114613bc8576040519150601f19603f3d011682016040523d82523d6000602084013e613bcd565b606091505b5091509150602081511015613be85760009350505050610489565b818015611c7d575080806020019051810190611c7d91906144d2565b6000826000018281548110613c1b57613c1b61450c565b9060005260206000200154905092915050565b828054613c3a906146fd565b90600052602060002090601f016020900481019282613c5c5760008555613ca2565b82601f10613c7557805160ff1916838001178555613ca2565b82800160010185558215613ca2579182015b82811115613ca2578251825591602001919060010190613c87565b50613cae929150613cb2565b5090565b5b80821115613cae5760008155600101613cb3565b600060208284031215613cd957600080fd5b81357fffffffff0000000000000000000000000000000000000000000000000000000081168114610ee557600080fd5b6001600160a01b038116811461275757600080fd5b600060208284031215613d3057600080fd5b8135610ee581613d09565b60008060408385031215613d4e57600080fd5b8235613d5981613d09565b946020939093013593505050565b7f4e487b7100000000000000000000000000000000000000000000000000000000600052604160045260246000fd5b604051601f8201601f1916810167ffffffffffffffff81118282101715613dbf57613dbf613d67565b604052919050565b600067ffffffffffffffff821115613de157613de1613d67565b5060051b60200190565b600082601f830112613dfc57600080fd5b81356020613e11613e0c83613dc7565b613d96565b82815260059290921b84018101918181019086841115613e3057600080fd5b8286015b84811015613e4b5780358352918301918301613e34565b509695505050505050565b600067ffffffffffffffff821115613e7057613e70613d67565b50601f01601f191660200190565b600082601f830112613e8f57600080fd5b8135613e9d613e0c82613e56565b818152846020838601011115613eb257600080fd5b816020850160208301376000918101602001919091529392505050565b600082601f830112613ee057600080fd5b81356020613ef0613e0c83613dc7565b82815260059290921b84018101918181019086841115613f0f57600080fd5b8286015b84811015613e4b57803567ffffffffffffffff811115613f335760008081fd5b613f418986838b0101613e7e565b845250918301918301613f13565b60008060408385031215613f6257600080fd5b823567ffffffffffffffff80821115613f7a57600080fd5b613f8686838701613deb565b93506020850135915080821115613f9c57600080fd5b50613fa985828601613ecf565b9150509250929050565b600060208284031215613fc557600080fd5b5035919050565b6020808252825182820181905260009190848201906040850190845b8181101561400d5783516001600160a01b031683529284019291840191600101613fe8565b50909695505050505050565b60006020828403121561402b57600080fd5b813567ffffffffffffffff81111561404257600080fd5b612f6684828501613deb565b60005b83811015614069578181015183820152602001614051565b83811115610b2e5750506000910152565b6000815180845261409281602086016020860161404e565b601f01601f19169290920160200192915050565b6000602080830181845280855180835260408601915060408160051b870101925083870160005b82811015614119577fffffffffffffffffffffffffffffffffffffffffffffffffffffffffffffffc088860301845261410785835161407a565b945092850192908501906001016140cd565b5092979650505050505050565b801515811461275757600080fd5b600080600080600060a0868803121561414c57600080fd5b853561415781613d09565b9450602086013561416781613d09565b935060408601359250606086013561417e81614126565b9150608086013567ffffffffffffffff81111561419a57600080fd5b6141a688828901613e7e565b9150509295509295909350565b602081526000610ee5602083018461407a565b600082601f8301126141d757600080fd5b813560206141e7613e0c83613dc7565b82815260059290921b8401810191818101908684111561420657600080fd5b8286015b84811015613e4b57803561421d81613d09565b835291830191830161420a565b600080600080600060a0868803121561424257600080fd5b853567ffffffffffffffff8082111561425a57600080fd5b61426689838a016141c6565b9650602088013591508082111561427c57600080fd5b61428889838a016141c6565b9550604088013591508082111561429e57600080fd5b6142aa89838a01613deb565b9450606088013591506142bc82614126565b909250608087013590808211156142d257600080fd5b506141a688828901613ecf565b60008083601f8401126142f157600080fd5b50813567ffffffffffffffff81111561430957600080fd5b60208301915083602082850101111561432157600080fd5b9250929050565b60008083601f84011261433a57600080fd5b50813567ffffffffffffffff81111561435257600080fd5b6020830191508360208260051b850101111561432157600080fd5b60008060008060006060868803121561438557600080fd5b853567ffffffffffffffff8082111561439d57600080fd5b6143a989838a016142df565b909750955060208801359150808211156143c257600080fd5b506143cf88828901614328565b90945092505060408601356143e381613d09565b809150509295509295909350565b6000806040838503121561440457600080fd5b82359150602083013567ffffffffffffffff81111561442257600080fd5b613fa985828601613e7e565b6020808252825182820181905260009190848201906040850190845b8181101561400d5783518352928401929184019160010161444a565b6000806000806040858703121561447c57600080fd5b843567ffffffffffffffff8082111561449457600080fd5b6144a0888389016142df565b909650945060208701359150808211156144b957600080fd5b506144c687828801614328565b95989497509550505050565b6000602082840312156144e457600080fd5b8151610ee581614126565b60006020828403121561450157600080fd5b8151610ee581613d09565b7f4e487b7100000000000000000000000000000000000000000000000000000000600052603260045260246000fd5b7f4e487b7100000000000000000000000000000000000000000000000000000000600052601160045260246000fd5b60007fffffffffffffffffffffffffffffffffffffffffffffffffffffffffffffffff82141561459c5761459c61453b565b5060010190565b818352818160208501375060006020828401015260006020601f19601f840116840101905092915050565b8183526000602080850194508260005b8581101561460c5781356145f181613d09565b6001600160a01b0316875295820195908201906001016145de565b509495945050505050565b60006001600160a01b03808a168352808916602084015260a0604084015261464360a08401888a6145a3565b83810360608501526146568187896145ce565b92505080841660808401525098975050505050505050565b80516020808301519190811015610fbc577fffffffffffffffffffffffffffffffffffffffffffffffffffffffffffffffff60209190910360031b1b16919050565b60006001600160a01b038089168352808816602084015250608060408301526146dd6080830186886145a3565b82810360608401526146f08185876145ce565b9998505050505050505050565b600181811c9082168061471157607f821691505b60208210811415610fbc577f4e487b7100000000000000000000000000000000000000000000000000000000600052602260045260246000fd5b6001600160a01b03841681528215156020820152606060408201526000614775606083018461407a565b95945050505050565b600082198211156147915761479161453b565b500190565b6000828210156147a8576147a861453b565b500390565b60007fffffffffffffffffffffffffffffffffffffffff000000000000000000000000808760601b168352808660601b1660148401525083602883015282516147fd81604885016020870161404e565b9190910160480195945050505050565b828152604060208201526000612f66604083018461407a565b60006020828403121561483857600080fd5b815167ffffffffffffffff81111561484f57600080fd5b8201601f8101841361486057600080fd5b805161486e613e0c82613e56565b81815285602083850101111561488357600080fd5b61477582602083016020860161404e565b7f4e487b7100000000000000000000000000000000000000000000000000000000600052603160045260246000fd5b600082516148d581846020870161404e565b919091019291505056fea2646970667358221220d8561014a837909981726f545ad8312dde889238588f59b8cf4daa39832f8f5964736f6c63430008090033deba1e292f8ba88238e10ab3c7f88bd4be4fac56cad5194b6ecceaf653468af12f0a68ab07768e01943a599e73362a0e17a63a72e94dd2e384d2c1d4db932756",
  "deployedBytecode": "0x608060405234801561001057600080fd5b50600436106101c45760003560e01c806365c12877116100f9578063b2fd625c11610097578063e7c4ece511610071578063e7c4ece5146103e7578063f0e7a43c146103fa578063f2fde38b1461040d578063fc7200311461042057600080fd5b8063b2fd625c146103b8578063cb3d0564146103cb578063cf5182ba146103d457600080fd5b80637659c8c9116100d35780637659c8c9146103615780637f23690c146103745780638da5cb5b14610387578063a3b261f21461039857600080fd5b806365c128771461033357806370a0823114610346578063715018a61461035957600080fd5b8063217b2270116101665780634e3e6e9c116101405780634e3e6e9c146102cd578063511b6952146102ed57806354f6127f14610300578063559088681461032057600080fd5b8063217b2270146102875780632a3654a41461029a57806349a6078d146102ad57600080fd5b80630e50cee5116101a25780630e50cee51461021957806314a6e2931461025a57806318160ddd1461026d5780631aa3a0081461027f57600080fd5b806301ffc9a7146101c957806302397a82146101f15780630b0c6d8214610206575b600080fd5b6101dc6101d7366004613cc7565b610433565b60405190151581526020015b60405180910390f35b6102046101ff366004613d1e565b61048f565b005b610204610214366004613d3b565b610a59565b610242610227366004613d1e565b6006602052600090815260409020546001600160a01b031681565b6040516001600160a01b0390911681526020016101e8565b610204610268366004613f4f565b610b34565b6002545b6040519081526020016101e8565b610242610c08565b610242610295366004613fb3565b610e7e565b6101dc6102a8366004613d3b565b610ed0565b6102c06102bb366004613fb3565b610eec565b6040516101e89190613fcc565b6102e06102db366004614019565b610f0e565b6040516101e891906140a6565b6102046102fb366004614134565b610fc2565b61031361030e366004613fb3565b61102a565b6040516101e891906141b3565b61020461032e36600461422a565b611035565b61024261034136600461436d565b61111b565b610271610354366004613d1e565b61166c565b61020461168d565b61020461036f366004613d1e565b6116a1565b6102046103823660046143f1565b611a0f565b6000546001600160a01b0316610242565b6103ab6103a6366004613d1e565b611a25565b6040516101e8919061442e565b6102426103c6366004614466565b611a49565b61027160075481565b6102046103e2366004613d3b565b611c87565b6102046103f5366004613d1e565b611db1565b610204610408366004613d1e565b612368565b61020461041b366004613d1e565b6126ca565b61024261042e36600461436d565b61275a565b60007fffffffff0000000000000000000000000000000000000000000000000000000082167f52ae1080000000000000000000000000000000000000000000000000000000001480610489575061048982612cf8565b92915050565b336000818152600660205260409020546001600160a01b03166104f95760405162461bcd60e51b815260206004820152601e60248201527f557365722061646472657373206973206e6f742072656769737465726564000060448201526064015b60405180910390fd5b6040517f01ffc9a70000000000000000000000000000000000000000000000000000000081527f8ef076aa00000000000000000000000000000000000000000000000000000000600482015282906001600160a01b038216906301ffc9a79060240160206040518083038186803b15801561057357600080fd5b505afa158015610587573d6000803e3d6000fd5b505050506040513d601f19601f820116820180604052508101906105ab91906144d2565b6106435760405162461bcd60e51b815260206004820152605860248201527f506f73742061646472657373206973206e6f7420706f696e74696e6720746f2060448201527f612076616c696420706f73742028536f6369616c4e6574776f726b506f73742060648201527f696e74657266616365206e6f7420617661696c61626c65290000000000000000608482015260a4016104f0565b306001600160a01b0316816001600160a01b0316638da5cb5b6040518163ffffffff1660e01b815260040160206040518083038186803b15801561068657600080fd5b505afa15801561069a573d6000803e3d6000fd5b505050506040513d601f19601f820116820180604052508101906106be91906144ef565b6001600160a01b0316146107615760405162461bcd60e51b8152602060048201526044602482018190527f506f73742061646472657373206973206e6f74206f776e656420627920637572908201527f72656e7420536f6369616c4e6574776f726b20636f6e747261637420696e737460648201527f616e636500000000000000000000000000000000000000000000000000000000608482015260a4016104f0565b3383806001600160a01b031663a6c3e6b96040518163ffffffff1660e01b815260040160206040518083038186803b15801561079c57600080fd5b505afa1580156107b0573d6000803e3d6000fd5b505050506040513d601f19601f820116820180604052508101906107d491906144ef565b6001600160a01b0316826001600160a01b031614156108355760405162461bcd60e51b815260206004820181905260248201527f55736572206d757374206e6f742062652074686520706f737420617574686f7260448201526064016104f0565b6040517f6038b7f800000000000000000000000000000000000000000000000000000000815233600482018190529086906001600160a01b03821690636038b7f89060240160206040518083038186803b15801561089257600080fd5b505afa1580156108a6573d6000803e3d6000fd5b505050506040513d601f19601f820116820180604052508101906108ca91906144d2565b156109175760405162461bcd60e51b815260206004820152601f60248201527f557365722068617320616c7265616479206c696b65642074686520706f73740060448201526064016104f0565b6040517f888b9afe0000000000000000000000000000000000000000000000000000000081523360048201526001600160a01b0388169063888b9afe90602401600060405180830381600087803b15801561097157600080fd5b505af1158015610985573d6000803e3d6000fd5b505033600090815260066020526040908190205490517f888b9afe0000000000000000000000000000000000000000000000000000000081526001600160a01b038b81166004830152909116925063888b9afe9150602401600060405180830381600087803b1580156109f757600080fd5b505af1158015610a0b573d6000803e3d6000fd5b50506040514281526001600160a01b038a1692503391507f876663551057bbf491fadeab49176312ba3c80adb2edaaabbe66a39b8b41e986906020015b60405180910390a350505050505050565b6000610a6482610e7e565b9050336001600160a01b0382168114610ac3576040517f5b271ea20000000000000000000000000000000000000000000000000000000081526001600160a01b03808416600483015260248201859052821660448201526064016104f0565b6001600160a01b038416610b03576040517f9577b8b300000000000000000000000000000000000000000000000000000000815260040160405180910390fd5b836001600160a01b0316826001600160a01b03161415610b235750505050565b610b2e848385612d4e565b50505050565b610b3c612dad565b8051825114610bb35760405162461bcd60e51b815260206004820152602660248201527f4b657973206c656e677468206e6f7420657175616c20746f2076616c7565732060448201527f6c656e677468000000000000000000000000000000000000000000000000000060648201526084016104f0565b60005b8251811015610c0357610bfb838281518110610bd457610bd461450c565b6020026020010151838381518110610bee57610bee61450c565b6020026020010151612e16565b600101610bb6565b505050565b336000908152600660205260408120546001600160a01b031615610c945760405162461bcd60e51b815260206004820152602260248201527f55736572206164647265737320697320616c726561647920726567697374657260448201527f656400000000000000000000000000000000000000000000000000000000000060648201526084016104f0565b333b610d2e5760405162461bcd60e51b815260206004820152604960248201527f55736572206164647265737320697320616e20454f41202d204f6e6c7920736d60448201527f61727420636f6e7472616374206261736564206163636f756e7473206172652060648201527f737570706f727465640000000000000000000000000000000000000000000000608482015260a4016104f0565b600760008154610d3d9061456a565b909155506040517f5be9890400000000000000000000000000000000000000000000000000000000815230600482015233602482015273__$e1e9acb8cf0b7d9dd541aed3de0dc7916c$__90635be989049060440160206040518083038186803b158015610daa57600080fd5b505af4158015610dbe573d6000803e3d6000fd5b505050506040513d601f19601f82011682018060405250810190610de291906144ef565b3360008181526006602090815260409182902080547fffffffffffffffffffffffff0000000000000000000000000000000000000000166001600160a01b039590951694851790556007549151428152919392917fb626e6cc43dfdcd60d2e41d199e03d0c90c4c7bb5c76193c8d6c31b88217f96c910160405180910390a450336000908152600660205260409020546001600160a01b031690565b6000818152600360205260408120546001600160a01b031680610489576040517fae8f9a36000000000000000000000000000000000000000000000000000000008152600481018490526024016104f0565b6000610edb82612ed4565b610ee58383612f25565b9392505050565b6060610ef782612ed4565b600082815260056020526040902061048990612f6e565b6060815167ffffffffffffffff811115610f2a57610f2a613d67565b604051908082528060200260200182016040528015610f5d57816020015b6060815260200190600190039081610f485790505b50905060005b8251811015610fbc57610f8e838281518110610f8157610f8161450c565b6020026020010151612f7b565b828281518110610fa057610fa061450c565b6020026020010181905250610fb58160010190565b9050610f63565b50919050565b33610fcd8185612f25565b611015576040517f1294d2a9000000000000000000000000000000000000000000000000000000008152600481018590526001600160a01b03821660248201526044016104f0565b611022868686868661301d565b505050505050565b606061048982612f7b565b8351855114158061104857508251855114155b8061105557508051855114155b1561108c576040517f93a8311900000000000000000000000000000000000000000000000000000000815260040160405180910390fd5b60005b8551811015611022576111098682815181106110ad576110ad61450c565b60200260200101518683815181106110c7576110c761450c565b60200260200101518684815181106110e1576110e161450c565b6020026020010151868686815181106110fc576110fc61450c565b6020026020010151610fc2565b806111138161456a565b91505061108f565b336000818152600660205260408120549091906001600160a01b03166111835760405162461bcd60e51b815260206004820152601e60248201527f557365722061646472657373206973206e6f742072656769737465726564000060448201526064016104f0565b6040517f01ffc9a70000000000000000000000000000000000000000000000000000000081527f8ef076aa00000000000000000000000000000000000000000000000000000000600482015283906001600160a01b038216906301ffc9a79060240160206040518083038186803b1580156111fd57600080fd5b505afa158015611211573d6000803e3d6000fd5b505050506040513d601f19601f8201168201806040525081019061123591906144d2565b6112cd5760405162461bcd60e51b815260206004820152605860248201527f506f73742061646472657373206973206e6f7420706f696e74696e6720746f2060448201527f612076616c696420706f73742028536f6369616c4e6574776f726b506f73742060648201527f696e74657266616365206e6f7420617661696c61626c65290000000000000000608482015260a4016104f0565b306001600160a01b0316816001600160a01b0316638da5cb5b6040518163ffffffff1660e01b815260040160206040518083038186803b15801561131057600080fd5b505afa158015611324573d6000803e3d6000fd5b505050506040513d601f19601f8201168201806040525081019061134891906144ef565b6001600160a01b0316146113eb5760405162461bcd60e51b8152602060048201526044602482018190527f506f73742061646472657373206973206e6f74206f776e656420627920637572908201527f72656e7420536f6369616c4e6574776f726b20636f6e747261637420696e737460648201527f616e636500000000000000000000000000000000000000000000000000000000608482015260a4016104f0565b6040517fdc2dde3d00000000000000000000000000000000000000000000000000000000815260009073__$166ae69d81e0c2a85c28a3b44767a780af$__9063dc2dde3d9061144a90309033908e908e908e908e908e90600401614617565b60206040518083038186803b15801561146257600080fd5b505af4158015611476573d6000803e3d6000fd5b505050506040513d601f19601f8201168201806040525081019061149a91906144ef565b60408051600060208201527fffffffffffffffffffffffffffffffffffffffff000000000000000000000000606084901b16602c82015291925061150b913391015b6040516020818303038152906040526114f49061466e565b6000604051806020016040528060008152506131d3565b6040517fdb58ebdb0000000000000000000000000000000000000000000000000000000081526001600160a01b03828116600483015286169063db58ebdb90602401600060405180830381600087803b15801561156757600080fd5b505af115801561157b573d6000803e3d6000fd5b505033600090815260066020526040908190205490517f3ff754420000000000000000000000000000000000000000000000000000000081526001600160a01b0385811660048301529091169250633ff754429150602401600060405180830381600087803b1580156115ed57600080fd5b505af1158015611601573d6000803e3d6000fd5b5050506001600160a01b03861690503360015b604080516001600160a01b03861681524260208201527f06f095ada26821e903889ee7afb234766ef8aa5eeac88a0a139f40fbdbfe4833910160405180910390a461166081888861332b565b98975050505050505050565b6001600160a01b038116600090815260046020526040812061048990613377565b611695612dad565b61169f6000612c2c565b565b336000818152600660205260409020546001600160a01b03166117065760405162461bcd60e51b815260206004820152601e60248201527f557365722061646472657373206973206e6f742072656769737465726564000060448201526064016104f0565b6001600160a01b0380831660009081526006602052604090205483911661176f5760405162461bcd60e51b815260206004820152601e60248201527f557365722061646472657373206973206e6f742072656769737465726564000060448201526064016104f0565b33836001600160a01b0381168214156117ca5760405162461bcd60e51b815260206004820152601760248201527f5573657273206d75737420626520646966666572656e7400000000000000000060448201526064016104f0565b6001600160a01b03828116600090815260066020526040908190205490517f1042c45b0000000000000000000000000000000000000000000000000000000081528383166004820152911690631042c45b9060240160206040518083038186803b15801561183757600080fd5b505afa15801561184b573d6000803e3d6000fd5b505050506040513d601f19601f8201168201806040525081019061186f91906144d2565b156118bc5760405162461bcd60e51b815260206004820152601c60248201527f5573657220697320616c7265616479206120737562736372696265720000000060448201526064016104f0565b33600090815260066020526040908190205490517ff29362510000000000000000000000000000000000000000000000000000000081526001600160a01b0387811660048301529091169063f293625190602401600060405180830381600087803b15801561192a57600080fd5b505af115801561193e573d6000803e3d6000fd5b505050506001600160a01b03858116600090815260066020526040908190205490517f94555d1a0000000000000000000000000000000000000000000000000000000081523360048201529116906394555d1a90602401600060405180830381600087803b1580156119af57600080fd5b505af11580156119c3573d6000803e3d6000fd5b50506040514281526001600160a01b03881692503391507fb28fc0c0eb588dadcdf724fc3ef93e40bdc619874a448e441da14d52c3c3073f906020015b60405180910390a35050505050565b611a17612dad565b611a218282612e16565b5050565b6001600160a01b038116600090815260046020526040902060609061048990613381565b336000818152600660205260408120549091906001600160a01b0316611ab15760405162461bcd60e51b815260206004820152601e60248201527f557365722061646472657373206973206e6f742072656769737465726564000060448201526064016104f0565b6040517f49434d5e00000000000000000000000000000000000000000000000000000000815260009073__$166ae69d81e0c2a85c28a3b44767a780af$__906349434d5e90611b0e90309033908c908c908c908c906004016146b0565b60206040518083038186803b158015611b2657600080fd5b505af4158015611b3a573d6000803e3d6000fd5b505050506040513d601f19601f82011682018060405250810190611b5e91906144ef565b60408051600060208201527fffffffffffffffffffffffffffffffffffffffff000000000000000000000000606084901b16602c820152919250611ba4913391016114dc565b33600090815260066020526040908190205490517f3ff754420000000000000000000000000000000000000000000000000000000081526001600160a01b03838116600483015290911690633ff7544290602401600060405180830381600087803b158015611c1257600080fd5b505af1158015611c26573d6000803e3d6000fd5b5060009250339150829050604080516001600160a01b03861681524260208201527f06f095ada26821e903889ee7afb234766ef8aa5eeac88a0a139f40fbdbfe4833910160405180910390a4611c7d81868661332b565b9695505050505050565b6000611c9282610e7e565b9050336001600160a01b0382168114611cf1576040517f5b271ea20000000000000000000000000000000000000000000000000000000081526001600160a01b03808416600483015260248201859052821660448201526064016104f0565b6001600160a01b038416611d31576040517f9577b8b300000000000000000000000000000000000000000000000000000000815260040160405180910390fd5b836001600160a01b0316826001600160a01b03161415611d515750505050565b6000838152600560205260409020611d69908561338c565b5082826001600160a01b0316856001600160a01b03167f34b797fc5a526f7bf1d2b5de25f6564fd85ae364e3ee939aee7c1ac27871a98860405160405180910390a450505050565b336000818152600660205260409020546001600160a01b0316611e165760405162461bcd60e51b815260206004820152601e60248201527f557365722061646472657373206973206e6f742072656769737465726564000060448201526064016104f0565b6040517f01ffc9a70000000000000000000000000000000000000000000000000000000081527f8ef076aa00000000000000000000000000000000000000000000000000000000600482015282906001600160a01b038216906301ffc9a79060240160206040518083038186803b158015611e9057600080fd5b505afa158015611ea4573d6000803e3d6000fd5b505050506040513d601f19601f82011682018060405250810190611ec891906144d2565b611f605760405162461bcd60e51b815260206004820152605860248201527f506f73742061646472657373206973206e6f7420706f696e74696e6720746f2060448201527f612076616c696420706f73742028536f6369616c4e6574776f726b506f73742060648201527f696e74657266616365206e6f7420617661696c61626c65290000000000000000608482015260a4016104f0565b306001600160a01b0316816001600160a01b0316638da5cb5b6040518163ffffffff1660e01b815260040160206040518083038186803b158015611fa357600080fd5b505afa158015611fb7573d6000803e3d6000fd5b505050506040513d601f19601f82011682018060405250810190611fdb91906144ef565b6001600160a01b03161461207e5760405162461bcd60e51b8152602060048201526044602482018190527f506f73742061646472657373206973206e6f74206f776e656420627920637572908201527f72656e7420536f6369616c4e6574776f726b20636f6e747261637420696e737460648201527f616e636500000000000000000000000000000000000000000000000000000000608482015260a4016104f0565b3383806001600160a01b031663a6c3e6b96040518163ffffffff1660e01b815260040160206040518083038186803b1580156120b957600080fd5b505afa1580156120cd573d6000803e3d6000fd5b505050506040513d601f19601f820116820180604052508101906120f191906144ef565b6001600160a01b0316826001600160a01b031614156121525760405162461bcd60e51b815260206004820181905260248201527f55736572206d757374206e6f742062652074686520706f737420617574686f7260448201526064016104f0565b6040517f6038b7f800000000000000000000000000000000000000000000000000000000815233600482018190529086906001600160a01b03821690636038b7f89060240160206040518083038186803b1580156121af57600080fd5b505afa1580156121c3573d6000803e3d6000fd5b505050506040513d601f19601f820116820180604052508101906121e791906144d2565b6122335760405162461bcd60e51b815260206004820152601e60248201527f5573657220646964206e6f74206c696b652074686520706f737420796574000060448201526064016104f0565b6040517fd1d05dae0000000000000000000000000000000000000000000000000000000081523360048201526001600160a01b0388169063d1d05dae90602401600060405180830381600087803b15801561228d57600080fd5b505af11580156122a1573d6000803e3d6000fd5b505033600090815260066020526040908190205490517fd1d05dae0000000000000000000000000000000000000000000000000000000081526001600160a01b038b81166004830152909116925063d1d05dae9150602401600060405180830381600087803b15801561231357600080fd5b505af1158015612327573d6000803e3d6000fd5b50506040514281526001600160a01b038a1692503391507fcfe29e184ff93a5d905406b88c3ece544de591d1065ff4f7ee19d8ba7e0c863a90602001610a48565b336000818152600660205260409020546001600160a01b03166123cd5760405162461bcd60e51b815260206004820152601e60248201527f557365722061646472657373206973206e6f742072656769737465726564000060448201526064016104f0565b6001600160a01b038083166000908152600660205260409020548391166124365760405162461bcd60e51b815260206004820152601e60248201527f557365722061646472657373206973206e6f742072656769737465726564000060448201526064016104f0565b33836001600160a01b0381168214156124915760405162461bcd60e51b815260206004820152601760248201527f5573657273206d75737420626520646966666572656e7400000000000000000060448201526064016104f0565b6001600160a01b03828116600090815260066020526040908190205490517f1042c45b0000000000000000000000000000000000000000000000000000000081528383166004820152911690631042c45b9060240160206040518083038186803b1580156124fe57600080fd5b505afa158015612512573d6000803e3d6000fd5b505050506040513d601f19601f8201168201806040525081019061253691906144d2565b6125825760405162461bcd60e51b815260206004820152601c60248201527f55736572206973206e6f7420612073756273637269626572207965740000000060448201526064016104f0565b33600090815260066020526040908190205490517f5d2052a80000000000000000000000000000000000000000000000000000000081526001600160a01b03878116600483015290911690635d2052a890602401600060405180830381600087803b1580156125f057600080fd5b505af1158015612604573d6000803e3d6000fd5b505050506001600160a01b03858116600090815260066020526040908190205490517f627c34ad00000000000000000000000000000000000000000000000000000000815233600482015291169063627c34ad90602401600060405180830381600087803b15801561267557600080fd5b505af1158015612689573d6000803e3d6000fd5b50506040514281526001600160a01b03881692503391507fc454fd8716f3d1a00fe1ccf95999df07044e76f6424799d86bf0b55c6331de8490602001611a00565b6126d2612dad565b6001600160a01b03811661274e5760405162461bcd60e51b815260206004820152602660248201527f4f776e61626c653a206e6577206f776e657220697320746865207a65726f206160448201527f646472657373000000000000000000000000000000000000000000000000000060648201526084016104f0565b61275781612c2c565b50565b336000818152600660205260408120549091906001600160a01b03166127c25760405162461bcd60e51b815260206004820152601e60248201527f557365722061646472657373206973206e6f742072656769737465726564000060448201526064016104f0565b6040517f01ffc9a70000000000000000000000000000000000000000000000000000000081527f8ef076aa00000000000000000000000000000000000000000000000000000000600482015283906001600160a01b038216906301ffc9a79060240160206040518083038186803b15801561283c57600080fd5b505afa158015612850573d6000803e3d6000fd5b505050506040513d601f19601f8201168201806040525081019061287491906144d2565b61290c5760405162461bcd60e51b815260206004820152605860248201527f506f73742061646472657373206973206e6f7420706f696e74696e6720746f2060448201527f612076616c696420706f73742028536f6369616c4e6574776f726b506f73742060648201527f696e74657266616365206e6f7420617661696c61626c65290000000000000000608482015260a4016104f0565b306001600160a01b0316816001600160a01b0316638da5cb5b6040518163ffffffff1660e01b815260040160206040518083038186803b15801561294f57600080fd5b505afa158015612963573d6000803e3d6000fd5b505050506040513d601f19601f8201168201806040525081019061298791906144ef565b6001600160a01b031614612a2a5760405162461bcd60e51b8152602060048201526044602482018190527f506f73742061646472657373206973206e6f74206f776e656420627920637572908201527f72656e7420536f6369616c4e6574776f726b20636f6e747261637420696e737460648201527f616e636500000000000000000000000000000000000000000000000000000000608482015260a4016104f0565b6040517fc81bfe0e00000000000000000000000000000000000000000000000000000000815260009073__$166ae69d81e0c2a85c28a3b44767a780af$__9063c81bfe0e90612a8990309033908e908e908e908e908e90600401614617565b60206040518083038186803b158015612aa157600080fd5b505af4158015612ab5573d6000803e3d6000fd5b505050506040513d601f19601f82011682018060405250810190612ad991906144ef565b60408051600060208201527fffffffffffffffffffffffffffffffffffffffff000000000000000000000000606084901b16602c820152919250612b1f913391016114dc565b6040517f703eb7240000000000000000000000000000000000000000000000000000000081526001600160a01b03828116600483015286169063703eb72490602401600060405180830381600087803b158015612b7b57600080fd5b505af1158015612b8f573d6000803e3d6000fd5b505033600090815260066020526040908190205490517f3ff754420000000000000000000000000000000000000000000000000000000081526001600160a01b0385811660048301529091169250633ff754429150602401600060405180830381600087803b158015612c0157600080fd5b505af1158015612c15573d6000803e3d6000fd5b5050506001600160a01b0386169050336002611614565b6000546001600160a01b0382811691161461275757600080546001600160a01b038381167fffffffffffffffffffffffff0000000000000000000000000000000000000000831681178455604051919092169283917f8be0079c531659141344cd1fd0a4f28419497f9722a3daafe3b4186f6b6457e09190a35050565b60008281526001602090815260409091208251612cc892840190613c2e565b5060405182907fcdf4e344c0d23d4cdd0474039d176c55b19d531070dbe17856bfb993a5b5720b90600090a25050565b60007fffffffff0000000000000000000000000000000000000000000000000000000082167f493991450000000000000000000000000000000000000000000000000000000014806104895750610489826133a1565b6000818152600560205260409020612d669084613438565b5080826001600160a01b0316846001600160a01b03167f17d5389f6ab6adb2647dfa0aa365c323d37adacc30b33a65310b6158ce1373d560405160405180910390a4505050565b33612dc06000546001600160a01b031690565b6001600160a01b03161461169f5760405162461bcd60e51b815260206004820181905260248201527f4f776e61626c653a2063616c6c6572206973206e6f7420746865206f776e657260448201526064016104f0565b7fdeba1e292f8ba88238e10ab3c7f88bd4be4fac56cad5194b6ecceaf653468af1821415612e70576040517f85c169bd00000000000000000000000000000000000000000000000000000000815260040160405180910390fd5b7f2f0a68ab07768e01943a599e73362a0e17a63a72e94dd2e384d2c1d4db932756821415612eca576040517f76755b3800000000000000000000000000000000000000000000000000000000815260040160405180910390fd5b611a218282612ca9565b6000818152600360205260409020546001600160a01b0316612757576040517fae8f9a36000000000000000000000000000000000000000000000000000000008152600481018290526024016104f0565b600080612f3183610e7e565b9050806001600160a01b0316846001600160a01b03161480612f6657506000838152600560205260409020612f66908561344d565b949350505050565b60606000610ee58361346f565b6000818152600160205260409020805460609190612f98906146fd565b80601f0160208091040260200160405190810160405280929190818152602001828054612fc4906146fd565b80156130115780601f10612fe657610100808354040283529160200191613011565b820191906000526020600020905b815481529060010190602001808311612ff457829003601f168201915b50505050509050919050565b600061302884610e7e565b9050856001600160a01b0316816001600160a01b03161461308f576040517f5b271ea20000000000000000000000000000000000000000000000000000000081526001600160a01b03808316600483015260248201869052871660448201526064016104f0565b6001600160a01b0385166130cf576040517f24ecef4d00000000000000000000000000000000000000000000000000000000815260040160405180910390fd5b336130db8787876134ca565b6130e5878661351c565b6001600160a01b0387166000908152600460205260409020613107908661356d565b506001600160a01b038616600090815260046020526040902061312a9086613579565b506000858152600360205260409081902080547fffffffffffffffffffffffff0000000000000000000000000000000000000000166001600160a01b0389811691821790925591518792918a16907fb333c813a7426a7a11e2b190cad52c44119421594b47f6f32ace6d8c7207b2bf906131a99086908a908a9061474b565b60405180910390a46131bd87878786613585565b6131ca878787878761369a565b50505050505050565b6001600160a01b038416613213576040517f24ecef4d00000000000000000000000000000000000000000000000000000000815260040160405180910390fd5b6000838152600360205260409020546001600160a01b031615613265576040517f34c7b511000000000000000000000000000000000000000000000000000000008152600481018490526024016104f0565b33613272600086866134ca565b6001600160a01b03851660009081526004602052604090206132949085613579565b5060008481526003602052604080822080547fffffffffffffffffffffffff0000000000000000000000000000000000000000166001600160a01b03891690811790915590518692907fb333c813a7426a7a11e2b190cad52c44119421594b47f6f32ace6d8c7207b2bf9061330e9086908990899061474b565b60405180910390a461332460008686868661369a565b5050505050565b8060005b81811015613324576133678585858481811061334d5761334d61450c565b90506020020160208101906133629190613d1e565b613845565b6133708161456a565b905061332f565b6000610489825490565b60606104898261346f565b6000610ee5836001600160a01b038416613991565b60007fffffffff0000000000000000000000000000000000000000000000000000000082167f714df77c00000000000000000000000000000000000000000000000000000000148061048957507f01ffc9a7000000000000000000000000000000000000000000000000000000007fffffffff00000000000000000000000000000000000000000000000000000000831614610489565b6000610ee5836001600160a01b0384166139e0565b6001600160a01b03811660009081526001830160205260408120541515610ee5565b60608160000180548060200260200160405190810160405280929190818152602001828054801561301157602002820191906000526020600020905b8154815260200190600101908083116134ab5750505050509050919050565b6001600160a01b0383166134f1576001600260008282546134eb919061477e565b90915550505b6001600160a01b038216610c03576001600260008282546135129190614796565b9091555050505050565b60008181526005602052604081209061353482613377565b905060005b8181101561332457600061354d8482613ad3565b905061355a818787612d4e565b50806135658161456a565b915050613539565b6000610ee583836139e0565b6000610ee58383613991565b6135af847f6bb56a1400000000000000000000000000000000000000000000000000000000613adf565b15610b2e576000848484846040516020016135cd94939291906147ad565b60408051601f19818403018152908290527f6bb56a1400000000000000000000000000000000000000000000000000000000825291506001600160a01b03861690636bb56a1490613644907f3724c94f0815e936299cca424da4140752198e0beb7931a6e0925d11bc97544c90859060040161480d565b600060405180830381600087803b15801561365e57600080fd5b505af1158015613672573d6000803e3d6000fd5b505050506040513d6000823e601f3d908101601f191682016040526110229190810190614826565b6136c4847f6bb56a1400000000000000000000000000000000000000000000000000000000613adf565b156137b6576000858585846040516020016136e294939291906147ad565b60408051601f19818403018152908290527f6bb56a1400000000000000000000000000000000000000000000000000000000825291506001600160a01b03861690636bb56a1490613759907fc7a120a42b6057a0cbed111fbbfbd52fcd96748c04394f77fc2c3adbe0391e0190859060040161480d565b600060405180830381600087803b15801561377357600080fd5b505af1158015613787573d6000803e3d6000fd5b505050506040513d6000823e601f3d908101601f191682016040526137af9190810190614826565b5050613324565b81613324576001600160a01b0384163b15613808576040517f4349776d0000000000000000000000000000000000000000000000000000000081526001600160a01b03851660048201526024016104f0565b6040517f031731370000000000000000000000000000000000000000000000000000000081526001600160a01b03851660048201526024016104f0565b6001600160a01b038082166000908152600660205260409020548291166138ae5760405162461bcd60e51b815260206004820152601e60248201527f557365722061646472657373206973206e6f742072656769737465726564000060448201526064016104f0565b6001600160a01b03828116600090815260066020526040908190205490517fcacbcb70000000000000000000000000000000000000000000000000000000008152858316600482015291169063cacbcb7090602401600060405180830381600087803b15801561391d57600080fd5b505af1158015613931573d6000803e3d6000fd5b50505050816001600160a01b0316836001600160a01b0316336001600160a01b03167fd120eb66fc1d1f51883f85ad2776ef64e71c8fc34bb794678ff88c497d00c6eb4260405161398491815260200190565b60405180910390a4505050565b60008181526001830160205260408120546139d857508154600181810184556000848152602080822090930184905584548482528286019093526040902091909155610489565b506000610489565b60008181526001830160205260408120548015613ac9576000613a04600183614796565b8554909150600090613a1890600190614796565b9050818114613a7d576000866000018281548110613a3857613a3861450c565b9060005260206000200154905080876000018481548110613a5b57613a5b61450c565b6000918252602080832090910192909255918252600188019052604090208390555b8554869080613a8e57613a8e614894565b600190038181906000526020600020016000905590558560010160008681526020019081526020016000206000905560019350505050610489565b6000915050610489565b6000610ee58383613c04565b604080517fffffffff00000000000000000000000000000000000000000000000000000000831660248083019190915282518083039091018152604490910182526020810180517bffffffffffffffffffffffffffffffffffffffffffffffffffffffff167f01ffc9a700000000000000000000000000000000000000000000000000000000179052905160009190829081906001600160a01b0387169061753090613b8c9086906148c3565b6000604051808303818686fa925050503d8060008114613bc8576040519150601f19603f3d011682016040523d82523d6000602084013e613bcd565b606091505b5091509150602081511015613be85760009350505050610489565b818015611c7d575080806020019051810190611c7d91906144d2565b6000826000018281548110613c1b57613c1b61450c565b9060005260206000200154905092915050565b828054613c3a906146fd565b90600052602060002090601f016020900481019282613c5c5760008555613ca2565b82601f10613c7557805160ff1916838001178555613ca2565b82800160010185558215613ca2579182015b82811115613ca2578251825591602001919060010190613c87565b50613cae929150613cb2565b5090565b5b80821115613cae5760008155600101613cb3565b600060208284031215613cd957600080fd5b81357fffffffff0000000000000000000000000000000000000000000000000000000081168114610ee557600080fd5b6001600160a01b038116811461275757600080fd5b600060208284031215613d3057600080fd5b8135610ee581613d09565b60008060408385031215613d4e57600080fd5b8235613d5981613d09565b946020939093013593505050565b7f4e487b7100000000000000000000000000000000000000000000000000000000600052604160045260246000fd5b604051601f8201601f1916810167ffffffffffffffff81118282101715613dbf57613dbf613d67565b604052919050565b600067ffffffffffffffff821115613de157613de1613d67565b5060051b60200190565b600082601f830112613dfc57600080fd5b81356020613e11613e0c83613dc7565b613d96565b82815260059290921b84018101918181019086841115613e3057600080fd5b8286015b84811015613e4b5780358352918301918301613e34565b509695505050505050565b600067ffffffffffffffff821115613e7057613e70613d67565b50601f01601f191660200190565b600082601f830112613e8f57600080fd5b8135613e9d613e0c82613e56565b818152846020838601011115613eb257600080fd5b816020850160208301376000918101602001919091529392505050565b600082601f830112613ee057600080fd5b81356020613ef0613e0c83613dc7565b82815260059290921b84018101918181019086841115613f0f57600080fd5b8286015b84811015613e4b57803567ffffffffffffffff811115613f335760008081fd5b613f418986838b0101613e7e565b845250918301918301613f13565b60008060408385031215613f6257600080fd5b823567ffffffffffffffff80821115613f7a57600080fd5b613f8686838701613deb565b93506020850135915080821115613f9c57600080fd5b50613fa985828601613ecf565b9150509250929050565b600060208284031215613fc557600080fd5b5035919050565b6020808252825182820181905260009190848201906040850190845b8181101561400d5783516001600160a01b031683529284019291840191600101613fe8565b50909695505050505050565b60006020828403121561402b57600080fd5b813567ffffffffffffffff81111561404257600080fd5b612f6684828501613deb565b60005b83811015614069578181015183820152602001614051565b83811115610b2e5750506000910152565b6000815180845261409281602086016020860161404e565b601f01601f19169290920160200192915050565b6000602080830181845280855180835260408601915060408160051b870101925083870160005b82811015614119577fffffffffffffffffffffffffffffffffffffffffffffffffffffffffffffffc088860301845261410785835161407a565b945092850192908501906001016140cd565b5092979650505050505050565b801515811461275757600080fd5b600080600080600060a0868803121561414c57600080fd5b853561415781613d09565b9450602086013561416781613d09565b935060408601359250606086013561417e81614126565b9150608086013567ffffffffffffffff81111561419a57600080fd5b6141a688828901613e7e565b9150509295509295909350565b602081526000610ee5602083018461407a565b600082601f8301126141d757600080fd5b813560206141e7613e0c83613dc7565b82815260059290921b8401810191818101908684111561420657600080fd5b8286015b84811015613e4b57803561421d81613d09565b835291830191830161420a565b600080600080600060a0868803121561424257600080fd5b853567ffffffffffffffff8082111561425a57600080fd5b61426689838a016141c6565b9650602088013591508082111561427c57600080fd5b61428889838a016141c6565b9550604088013591508082111561429e57600080fd5b6142aa89838a01613deb565b9450606088013591506142bc82614126565b909250608087013590808211156142d257600080fd5b506141a688828901613ecf565b60008083601f8401126142f157600080fd5b50813567ffffffffffffffff81111561430957600080fd5b60208301915083602082850101111561432157600080fd5b9250929050565b60008083601f84011261433a57600080fd5b50813567ffffffffffffffff81111561435257600080fd5b6020830191508360208260051b850101111561432157600080fd5b60008060008060006060868803121561438557600080fd5b853567ffffffffffffffff8082111561439d57600080fd5b6143a989838a016142df565b909750955060208801359150808211156143c257600080fd5b506143cf88828901614328565b90945092505060408601356143e381613d09565b809150509295509295909350565b6000806040838503121561440457600080fd5b82359150602083013567ffffffffffffffff81111561442257600080fd5b613fa985828601613e7e565b6020808252825182820181905260009190848201906040850190845b8181101561400d5783518352928401929184019160010161444a565b6000806000806040858703121561447c57600080fd5b843567ffffffffffffffff8082111561449457600080fd5b6144a0888389016142df565b909650945060208701359150808211156144b957600080fd5b506144c687828801614328565b95989497509550505050565b6000602082840312156144e457600080fd5b8151610ee581614126565b60006020828403121561450157600080fd5b8151610ee581613d09565b7f4e487b7100000000000000000000000000000000000000000000000000000000600052603260045260246000fd5b7f4e487b7100000000000000000000000000000000000000000000000000000000600052601160045260246000fd5b60007fffffffffffffffffffffffffffffffffffffffffffffffffffffffffffffffff82141561459c5761459c61453b565b5060010190565b818352818160208501375060006020828401015260006020601f19601f840116840101905092915050565b8183526000602080850194508260005b8581101561460c5781356145f181613d09565b6001600160a01b0316875295820195908201906001016145de565b509495945050505050565b60006001600160a01b03808a168352808916602084015260a0604084015261464360a08401888a6145a3565b83810360608501526146568187896145ce565b92505080841660808401525098975050505050505050565b80516020808301519190811015610fbc577fffffffffffffffffffffffffffffffffffffffffffffffffffffffffffffffff60209190910360031b1b16919050565b60006001600160a01b038089168352808816602084015250608060408301526146dd6080830186886145a3565b82810360608401526146f08185876145ce565b9998505050505050505050565b600181811c9082168061471157607f821691505b60208210811415610fbc577f4e487b7100000000000000000000000000000000000000000000000000000000600052602260045260246000fd5b6001600160a01b03841681528215156020820152606060408201526000614775606083018461407a565b95945050505050565b600082198211156147915761479161453b565b500190565b6000828210156147a8576147a861453b565b500390565b60007fffffffffffffffffffffffffffffffffffffffff000000000000000000000000808760601b168352808660601b1660148401525083602883015282516147fd81604885016020870161404e565b9190910160480195945050505050565b828152604060208201526000612f66604083018461407a565b60006020828403121561483857600080fd5b815167ffffffffffffffff81111561484f57600080fd5b8201601f8101841361486057600080fd5b805161486e613e0c82613e56565b81815285602083850101111561488357600080fd5b61477582602083016020860161404e565b7f4e487b7100000000000000000000000000000000000000000000000000000000600052603160045260246000fd5b600082516148d581846020870161404e565b919091019291505056fea2646970667358221220d8561014a837909981726f545ad8312dde889238588f59b8cf4daa39832f8f5964736f6c63430008090033",
  "libraries": {
    "SocialNetworkPostFactory": "0xa513E6E4b8f2a923D98304ec87F64353C4D5C853",
    "SocialNetworkProfileDataFactory": "0x2279B7A0a67DB372996a5FaB50D91eAA73d2eBe6"
  },
  "devdoc": {
    "author": "Dennis Tuszynski",
    "details": "Contract module represents a social network.",
    "errors": {
      "LSP4TokenNameNotEditable()": [
        {
          "details": "Reverts when trying to edit the data key `LSP4TokenName` after the digital asset contract has been deployed.      The `LSP4TokenName` data key is located inside the ERC725Y key-value store of the digital asset contract.      It can be set only once inside the constructor/initializer when the digital asset contract is being deployed."
        }
      ],
      "LSP4TokenSymbolNotEditable()": [
        {
          "details": "Reverts when trying to edit the data key `LSP4TokenSymbol` after the digital asset contract has been deployed.      The `LSP4TokenSymbol` data key is located inside the ERC725Y key-value store of the digital asset contract.      It can be set only once inside the constructor/initializer when the digital asset contract is being deployed."
        }
      ]
    },
    "kind": "dev",
    "methods": {
      "authorizeOperator(address,bytes32)": {
        "details": "Makes `operator` address an operator of `tokenId`. See {isOperatorFor}. Requirements - `tokenId` must exist. - caller must be current `tokenOwner` of `tokenId`. - `operator` cannot be the zero address. Emits an {AuthorizedOperator} event.",
        "params": {
          "operator": "The address to authorize as an operator.",
          "tokenId": "The tokenId operator has access to."
        }
      },
      "balanceOf(address)": {
        "details": "Returns the number of tokens owned by `tokenOwner`.",
        "params": {
          "tokenOwner": "The address to query"
        },
        "returns": {
          "_0": "The number of tokens owned by this address"
        }
      },
      "commentPost(bytes,address[],address)": {
        "params": {
          "_data": "The comment post content data",
          "_taggedUsers": "An array of tagged users (optional)",
          "_targetPost": "The commented post"
        }
      },
      "createPost(bytes,address[])": {
        "params": {
          "_data": "The post content data",
          "_taggedUsers": "An array of tagged users (optional)"
        }
      },
      "getData(bytes32)": {
        "params": {
          "dataKey": "The key which value to retrieve"
        },
        "returns": {
          "dataValue": "The data stored at the key"
        }
      },
      "getData(bytes32[])": {
        "params": {
          "dataKeys": "The array of keys which values to retrieve"
        },
        "returns": {
          "dataValues": "The array of data stored at multiple keys"
        }
      },
      "getOperatorsOf(bytes32)": {
        "details": "Returns all `operator` addresses of `tokenId`. Requirements - `tokenId` must exist.",
        "params": {
          "tokenId": "The tokenId to query"
        },
        "returns": {
          "_0": "The list of operators for the `tokenId`"
        }
      },
      "isOperatorFor(address,bytes32)": {
        "details": "Returns whether `operator` address is an operator of `tokenId`. Operators can send and burn tokens on behalf of their owners. The tokenOwner is their own operator. Requirements - `tokenId` must exist.",
        "params": {
          "operator": "The address to query",
          "tokenId": "The tokenId to query"
        },
        "returns": {
          "_0": "True if the owner of `tokenId` is `operator` address, false otherwise"
        }
      },
      "likePost(address)": {
        "params": {
          "_post": "The post to be liked"
        }
      },
      "owner()": {
        "details": "Returns the address of the current owner."
      },
      "register()": {
        "details": "Creates a new instance of the SocialNetworkProfileData contract and links it to the sender address. Fails if the sender address is not a universal profile or if the sender address is already registered."
      },
      "renounceOwnership()": {
        "details": "Leaves the contract without owner. It will not be possible to call `onlyOwner` functions anymore. Can only be called by the current owner. NOTE: Renouncing ownership will leave the contract without an owner, thereby removing any functionality that is only available to the owner."
      },
      "revokeOperator(address,bytes32)": {
        "details": "Removes `operator` address as an operator of `tokenId`. See {isOperatorFor}. Requirements - `tokenId` must exist. - caller must be current `tokenOwner` of `tokenId`. - `operator` cannot be the zero address. Emits a {RevokedOperator} event.",
        "params": {
          "operator": "The address to revoke as an operator.",
          "tokenId": "The tokenId `operator` is revoked from operating"
        }
      },
      "setData(bytes32,bytes)": {
        "params": {
          "dataKey": "The key to retrieve stored value",
          "dataValue": "The value to set SHOULD only be callable by the owner of the contract set via ERC173 Emits a {DataChanged} event."
        }
      },
      "setData(bytes32[],bytes[])": {
        "details": "Sets array of data for multiple given `dataKeys` SHOULD only be callable by the owner of the contract set via ERC173 Emits a {DataChanged} event.",
        "params": {
          "dataKeys": "The array of data keys for values to set",
          "dataValues": "The array of values to set"
        }
      },
      "sharePost(bytes,address[],address)": {
        "params": {
          "_data": "The comment post content data",
          "_taggedUsers": "An array of tagged users (optional)",
          "_targetPost": "The shared post"
        }
      },
      "subscribeUser(address)": {
        "params": {
          "_user": "The user to be subscribed"
        }
      },
      "supportsInterface(bytes4)": {
        "details": "See {IERC165-supportsInterface}."
      },
      "tokenIdsOf(address)": {
        "details": "Returns the list of `tokenIds` for the `tokenOwner` address.",
        "params": {
          "tokenOwner": "The address to query owned tokens"
        },
        "returns": {
          "_0": "List of owned tokens by `tokenOwner` address"
        }
      },
      "tokenOwnerOf(bytes32)": {
        "details": "Returns the `tokenOwner` address of the `tokenId` token. Requirements: - `tokenId` must exist.",
        "params": {
          "tokenId": "The tokenId to query"
        },
        "returns": {
          "_0": "The address owning the `tokenId`"
        }
      },
      "totalSupply()": {
        "details": "Returns the number of existing tokens.",
        "returns": {
          "_0": "The number of existing tokens"
        }
      },
      "transfer(address,address,bytes32,bool,bytes)": {
        "details": "Transfers `tokenId` token from `from` to `to`. Requirements: - `from` cannot be the zero address. - `to` cannot be the zero address. - `tokenId` token must be owned by `from`. - If the caller is not `from`, it must be an operator of `tokenId`. Emits a {Transfer} event.",
        "params": {
          "data": "Additional data the caller wants included in the emitted event, and sent in the hooks to `from` and `to` addresses.",
          "force": "When set to TRUE, to may be any address but when set to FALSE to must be a contract that supports LSP1 UniversalReceiver",
          "from": "The sending address.",
          "to": "The receiving address.",
          "tokenId": "The tokenId to transfer."
        }
      },
      "transferBatch(address[],address[],bytes32[],bool,bytes[])": {
        "details": "Transfers many tokens based on the list `from`, `to`, `tokenId`. If any transfer fails the call will revert. Requirements: - `from`, `to`, `tokenId` lists are the same length. - no values in `from` can be the zero address. - no values in `to` can be the zero address. - each `tokenId` token must be owned by `from`. - If the caller is not `from`, it must be an operator of each `tokenId`. Emits {Transfer} events.",
        "params": {
          "data": "Additional data the caller wants included in the emitted event, and sent in the hooks to `from` and `to` addresses.",
          "force": "When set to TRUE, to may be any address but when set to FALSE to must be a contract that supports LSP1 UniversalReceiver",
          "from": "The list of sending addresses.",
          "to": "The list of receiving addresses.",
          "tokenId": "The list of tokenId to transfer."
        }
      },
      "transferOwnership(address)": {
        "details": "Transfers ownership of the contract to a new account (`newOwner`). Can only be called by the current owner."
      },
      "unlikePost(address)": {
        "params": {
          "_post": "The post to be unliked"
        }
      },
      "unsubscribeUser(address)": {
        "params": {
          "_user": "The user to be unsubscribed"
        }
      }
    },
    "title": "Social Network Implementation",
    "version": 1
  },
  "userdoc": {
    "events": {
      "DataChanged(bytes32)": {
        "notice": "Emitted when data at a key is changed"
      }
    },
    "kind": "user",
    "methods": {
      "commentPost(bytes,address[],address)": {
        "notice": "User (msg.sender) comments a post"
      },
      "createPost(bytes,address[])": {
        "notice": "User (msg.sender) creates a post"
      },
      "getData(bytes32)": {
        "notice": "Gets singular data at a given `dataKey`"
      },
      "getData(bytes32[])": {
        "notice": "Gets array of data for multiple given keys"
      },
      "likePost(address)": {
        "notice": "User (msg.sender) likes a post"
      },
      "register()": {
        "notice": "Registers a new user (msg.sender)"
      },
      "setData(bytes32,bytes)": {
        "notice": "Sets singular data for a given `dataKey`"
      },
      "sharePost(bytes,address[],address)": {
        "notice": "User (msg.sender) shares a post with a comment"
      },
      "subscribeUser(address)": {
        "notice": "User (msg.sender) subscribes an other user"
      },
      "unlikePost(address)": {
        "notice": "User (msg.sender) unlikes a post"
      },
      "unsubscribeUser(address)": {
        "notice": "User (msg.sender) unsubscribes an other user"
      }
    },
    "version": 1
  },
  "storageLayout": {
    "storage": [
      {
        "astId": 278,
        "contract": "contracts/SocialNetwork.sol:SocialNetwork",
        "label": "_owner",
        "offset": 0,
        "slot": "0",
        "type": "t_address"
      },
      {
        "astId": 50,
        "contract": "contracts/SocialNetwork.sol:SocialNetwork",
        "label": "store",
        "offset": 0,
        "slot": "1",
        "type": "t_mapping(t_bytes32,t_bytes_storage)"
      },
      {
        "astId": 1689,
        "contract": "contracts/SocialNetwork.sol:SocialNetwork",
        "label": "_existingTokens",
        "offset": 0,
        "slot": "2",
        "type": "t_uint256"
      },
      {
        "astId": 1693,
        "contract": "contracts/SocialNetwork.sol:SocialNetwork",
        "label": "_tokenOwners",
        "offset": 0,
        "slot": "3",
        "type": "t_mapping(t_bytes32,t_address)"
      },
      {
        "astId": 1698,
        "contract": "contracts/SocialNetwork.sol:SocialNetwork",
        "label": "_ownedTokens",
        "offset": 0,
        "slot": "4",
        "type": "t_mapping(t_address,t_struct(Bytes32Set)3192_storage)"
      },
      {
        "astId": 1703,
        "contract": "contracts/SocialNetwork.sol:SocialNetwork",
        "label": "_operators",
        "offset": 0,
        "slot": "5",
        "type": "t_mapping(t_bytes32,t_struct(AddressSet)3299_storage)"
      },
      {
        "astId": 4537,
        "contract": "contracts/SocialNetwork.sol:SocialNetwork",
        "label": "registeredUsers",
        "offset": 0,
        "slot": "6",
        "type": "t_mapping(t_address,t_address)"
      },
      {
        "astId": 4540,
        "contract": "contracts/SocialNetwork.sol:SocialNetwork",
        "label": "registeredUserCount",
        "offset": 0,
        "slot": "7",
        "type": "t_uint256"
      }
    ],
    "types": {
      "t_address": {
        "encoding": "inplace",
        "label": "address",
        "numberOfBytes": "20"
      },
      "t_array(t_bytes32)dyn_storage": {
        "base": "t_bytes32",
        "encoding": "dynamic_array",
        "label": "bytes32[]",
        "numberOfBytes": "32"
      },
      "t_bytes32": {
        "encoding": "inplace",
        "label": "bytes32",
        "numberOfBytes": "32"
      },
      "t_bytes_storage": {
        "encoding": "bytes",
        "label": "bytes",
        "numberOfBytes": "32"
      },
      "t_mapping(t_address,t_address)": {
        "encoding": "mapping",
        "key": "t_address",
        "label": "mapping(address => address)",
        "numberOfBytes": "32",
        "value": "t_address"
      },
      "t_mapping(t_address,t_struct(Bytes32Set)3192_storage)": {
        "encoding": "mapping",
        "key": "t_address",
        "label": "mapping(address => struct EnumerableSet.Bytes32Set)",
        "numberOfBytes": "32",
        "value": "t_struct(Bytes32Set)3192_storage"
      },
      "t_mapping(t_bytes32,t_address)": {
        "encoding": "mapping",
        "key": "t_bytes32",
        "label": "mapping(bytes32 => address)",
        "numberOfBytes": "32",
        "value": "t_address"
      },
      "t_mapping(t_bytes32,t_bytes_storage)": {
        "encoding": "mapping",
        "key": "t_bytes32",
        "label": "mapping(bytes32 => bytes)",
        "numberOfBytes": "32",
        "value": "t_bytes_storage"
      },
      "t_mapping(t_bytes32,t_struct(AddressSet)3299_storage)": {
        "encoding": "mapping",
        "key": "t_bytes32",
        "label": "mapping(bytes32 => struct EnumerableSet.AddressSet)",
        "numberOfBytes": "32",
        "value": "t_struct(AddressSet)3299_storage"
      },
      "t_mapping(t_bytes32,t_uint256)": {
        "encoding": "mapping",
        "key": "t_bytes32",
        "label": "mapping(bytes32 => uint256)",
        "numberOfBytes": "32",
        "value": "t_uint256"
      },
      "t_struct(AddressSet)3299_storage": {
        "encoding": "inplace",
        "label": "struct EnumerableSet.AddressSet",
        "members": [
          {
            "astId": 3298,
            "contract": "contracts/SocialNetwork.sol:SocialNetwork",
            "label": "_inner",
            "offset": 0,
            "slot": "0",
            "type": "t_struct(Set)2998_storage"
          }
        ],
        "numberOfBytes": "64"
      },
      "t_struct(Bytes32Set)3192_storage": {
        "encoding": "inplace",
        "label": "struct EnumerableSet.Bytes32Set",
        "members": [
          {
            "astId": 3191,
            "contract": "contracts/SocialNetwork.sol:SocialNetwork",
            "label": "_inner",
            "offset": 0,
            "slot": "0",
            "type": "t_struct(Set)2998_storage"
          }
        ],
        "numberOfBytes": "64"
      },
      "t_struct(Set)2998_storage": {
        "encoding": "inplace",
        "label": "struct EnumerableSet.Set",
        "members": [
          {
            "astId": 2993,
            "contract": "contracts/SocialNetwork.sol:SocialNetwork",
            "label": "_values",
            "offset": 0,
            "slot": "0",
            "type": "t_array(t_bytes32)dyn_storage"
          },
          {
            "astId": 2997,
            "contract": "contracts/SocialNetwork.sol:SocialNetwork",
            "label": "_indexes",
            "offset": 0,
            "slot": "1",
            "type": "t_mapping(t_bytes32,t_uint256)"
          }
        ],
        "numberOfBytes": "64"
      },
      "t_uint256": {
        "encoding": "inplace",
        "label": "uint256",
        "numberOfBytes": "32"
      }
    }
  }
}